:020000040000fa
:080000000002040000000000f2
:020000040000fa
:040008008209000069
:020000040000fa
:04000c00500300009d
:020000040000fa
:040010009203000057
:020000040000fa
:040014007003000075
:020000040000fa
:04001800b20300002f
:020000040000fa
:04001c008209000055
:020000040000fa
:040020008209000051
:020000040000fa
:04002400820900004d
:020000040000fa
:040028008209000049
:020000040000fa
:04002c008209000045
:020000040000fa
:040030008209000041
:020000040000fa
:04003400820900003d
:020000040000fa
:040038008209000039
:020000040000fa
:04003c008209000035
:020000040000fa
:040040008209000031
:020000040000fa
:04004400820900002d
:020000040000fa
:040048008209000029
:020000040000fa
:04004c008209000025
:020000040000fa
:040050008209000021
:020000040000fa
:040054007e06000024
:020000040000fa
:04005800220600007c
:020000040000fa
:04005c008209000015
:020000040000fa
:040060008209000011
:020000040000fa
:04006400820900000d
:020000040000fa
:040068008209000009
:020000040000fa
:04006c008209000005
:020000040000fa
:040070008209000001
:020000040000fa
:0400740082090000fd
:020000040000fa
:0400780082090000f9
:020000040000fa
:04007c0082090000f5
:020000040000fa
:0400800082090000f1
:020000040000fa
:0400840082090000ed
:020000040000fa
:0400880082090000e9
:020000040000fa
:04008c0082090000e5
:020000040000fa
:0400900082090000e1
:020000040000fa
:0400940082090000dd
:020000040000fa
:0400980082090000d9
:020000040000fa
:04009c0082090000d5
:020000040000fa
:0400a00056070000ff
:020000040000fa
:0400a400fa06000058
:020000040000fa
:0400a80082090000c9
:020000040000fa
:0400ac0082090000c5
:020000040000fa
:0400b00082090000c1
:020000040000fa
:0400b40082090000bd
:020000040000fa
:0400b80082090000b9
:020000040000fa
:0400bc0082090000b5
:020000040000fa
:0400c00082090000b1
:020000040000fa
:0400c40082090000ad
:020000040000fa
:0400c80082090000a9
:020000040000fa
:0400cc0082090000a5
:020000040000fa
:0400d00082090000a1
:020000040000fa
:0400d400820900009d
:020000040000fa
:0400d8008209000099
:020000040000fa
:0400dc008209000095
:020000040000fa
:0400e0008209000091
:020000040000fa
:0400e400820900008d
:020000040000fa
:0400e8008209000089
:020000040000fa
:0400ec008209000085
:020000040000fa
:0400f000d203000037
:020000040000fa
:0400f400820900007d
:020000040000fa
:0400f8008209000079
:020000040000fa
:0400fc008209000075
:020000040000fa
:040100008209000070
:020000040000fa
:04010400820900006c
:020000040000fa
:040108008209000068
:020000040000fa
:04010c008209000064
:020000040000fa
:040110008209000060
:020000040000fa
:04011400820900005c
:020000040000fa
:040118008209000058
:020000040000fa
:04011c008209000054
:020000040000fa
:040120008209000050
:020000040000fa
:04012400820900004c
:020000040000fa
:040128008209000048
:020000040000fa
:04012c00e4060000e5
:020000040000fa
:04013000bc07000008
:020000040000fa
:04013400820900003c
:020000040000fa
:040138008209000038
:020000040000fa
:04013c008209000034
:020000040000fa
:040140008209000030
:020000040000fa
:04014400820900002c
:020000040000fa
:040148008209000028
:020000040000fa
:04014c008209000024
:020000040000fa
:040150008209000020
:020000040000fa
:04015400820900001c
:020000040000fa
:040158008209000018
:020000040000fa
:04015c008209000014
:020000040000fa
:040160008209000010
:020000040000fa
:04016400820900000c
:020000040000fa
:040168008209000008
:020000040000fa
:04016c0094080000f3
:020000040000fa
:040170002e08000055
:020000040000fa
:04017400d2070000ae
:020000040000fa
:0401780082090000f8
:020000040000fa
:04017c0082090000f4
:020000040000fa
:040180002403000054
:020000040000fa
:040184006c09000002
:020000040000fa
:040188000609000064
:020000040000fa
:04018c00aa080000bd
:020000040000fa
:0401900082090000e0
:020000040000fa
:0401940082090000dc
:020000040000fa
:0401980082090000d8
:020000040000fa
:04019c0082090000d4
:020000040000fa
:0401a00082090000d0
:020000040000fa
:0401a40082090000cc
:020000040000fa
:0401a80082090000c8
:020000040000fa
:0401ac0082090000c4
:020000040000fa
:0401b00082090000c0
:020000040000fa
:0401b40082090000bc
:020000040000fa
:0401b80082090000b8
:020000040000fa
:0401bc0082090000b4
:020000040000fa
:0401c00082090000b0
:020000040000fa
:0401c40082090000ac
:020000040000fa
:0401c80082090000a8
:020000040000fa
:0401cc0082090000a4
:020000040000fa
:0401d00082090000a0
:020000040000fa
:0401d400820900009c
:020000040000fa
:0401d8008209000098
:020000040000fa
:0401dc008209000094
:020000040000fa
:0401e0008209000090
:020000040000fa
:0401e400820900008c
:020000040000fa
:0401e8008209000088
:020000040000fa
:0401ec008209000084
:020000040000fa
:0401f0008209000080
:020000040000fa
:0401f400820900007c
:020000040000fa
:0401f8008209000078
:020000040000fa
:0401fc008209000074
:020000040000fa
:040208008209000067
:020000040000fa
:04020c00500300009b
:020000040000fa
:040210009203000055
:020000040000fa
:040214007003000073
:020000040000fa
:04021800b20300002d
:020000040000fa
:04021c008209000053
:020000040000fa
:04022000820900004f
:020000040000fa
:04022400820900004b
:020000040000fa
:040228008209000047
:020000040000fa
:04022c008209000043
:020000040000fa
:04023000820900003f
:020000040000fa
:04023400820900003b
:020000040000fa
:040238008209000037
:020000040000fa
:04023c008209000033
:020000040000fa
:04024000820900002f
:020000040000fa
:04024400820900002b
:020000040000fa
:040248008209000027
:020000040000fa
:04024c008209000023
:020000040000fa
:04025000820900001f
:020000040000fa
:040254007e06000022
:020000040000fa
:04025800220600007a
:020000040000fa
:04025c008209000013
:020000040000fa
:04026000820900000f
:020000040000fa
:04026400820900000b
:020000040000fa
:040268008209000007
:020000040000fa
:04026c008209000003
:020000040000fa
:0402700082090000ff
:020000040000fa
:0402740082090000fb
:020000040000fa
:0402780082090000f7
:020000040000fa
:04027c0082090000f3
:020000040000fa
:0402800082090000ef
:020000040000fa
:0402840082090000eb
:020000040000fa
:0402880082090000e7
:020000040000fa
:04028c0082090000e3
:020000040000fa
:0402900082090000df
:020000040000fa
:0402940082090000db
:020000040000fa
:0402980082090000d7
:020000040000fa
:04029c0082090000d3
:020000040000fa
:0402a00056070000fd
:020000040000fa
:0402a400fa06000056
:020000040000fa
:0402a80082090000c7
:020000040000fa
:0402ac0082090000c3
:020000040000fa
:0402b00082090000bf
:020000040000fa
:0402b40082090000bb
:020000040000fa
:0402b80082090000b7
:020000040000fa
:0402bc0082090000b3
:020000040000fa
:0402c00082090000af
:020000040000fa
:0402c40082090000ab
:020000040000fa
:0402c80082090000a7
:020000040000fa
:0402cc0082090000a3
:020000040000fa
:0402d000820900009f
:020000040000fa
:0402d400820900009b
:020000040000fa
:0402d8008209000097
:020000040000fa
:0402dc008209000093
:020000040000fa
:0402e000820900008f
:020000040000fa
:0402e400820900008b
:020000040000fa
:0402e8008209000087
:020000040000fa
:0402ec008209000083
:020000040000fa
:0402f000d203000035
:020000040000fa
:0402f400820900007b
:020000040000fa
:0402f8008209000077
:020000040000fa
:0402fc008209000073
:020000040000fa
:04030000820900006e
:020000040000fa
:04030400820900006a
:020000040000fa
:040308008209000066
:020000040000fa
:04030c008209000062
:020000040000fa
:04031000820900005e
:020000040000fa
:04031400820900005a
:020000040000fa
:040318008209000056
:020000040000fa
:04031c008209000052
:020000040000fa
:04032000820900004e
:020000040000fa
:04032400820900004a
:020000040000fa
:040328008209000046
:020000040000fa
:04032c00e4060000e3
:020000040000fa
:04033000bc07000006
:020000040000fa
:04033400820900003a
:020000040000fa
:040338008209000036
:020000040000fa
:04033c008209000032
:020000040000fa
:04034000820900002e
:020000040000fa
:04034400820900002a
:020000040000fa
:040348008209000026
:020000040000fa
:04034c008209000022
:020000040000fa
:04035000820900001e
:020000040000fa
:04035400820900001a
:020000040000fa
:040358008209000016
:020000040000fa
:04035c008209000012
:020000040000fa
:04036000820900000e
:020000040000fa
:04036400820900000a
:020000040000fa
:040368008209000006
:020000040000fa
:04036c0094080000f1
:020000040000fa
:040370002e08000053
:020000040000fa
:04037400d2070000ac
:020000040000fa
:0403780082090000f6
:020000040000fa
:04037c0082090000f2
:020000040000fa
:040380002403000052
:020000040000fa
:040384006c09000000
:020000040000fa
:040388000609000062
:020000040000fa
:04038c00aa080000bb
:020000040000fa
:0403900082090000de
:020000040000fa
:0403940082090000da
:020000040000fa
:0403980082090000d6
:020000040000fa
:04039c0082090000d2
:020000040000fa
:0403a00082090000ce
:020000040000fa
:0403a40082090000ca
:020000040000fa
:0403a80082090000c6
:020000040000fa
:0403ac0082090000c2
:020000040000fa
:0403b00082090000be
:020000040000fa
:0403b40082090000ba
:020000040000fa
:0403b80082090000b6
:020000040000fa
:0403bc0082090000b2
:020000040000fa
:0403c00082090000ae
:020000040000fa
:0403c40082090000aa
:020000040000fa
:0403c80082090000a6
:020000040000fa
:0403cc0082090000a2
:020000040000fa
:0403d000820900009e
:020000040000fa
:0403d400820900009a
:020000040000fa
:0403d8008209000096
:020000040000fa
:0403dc008209000092
:020000040000fa
:0403e000820900008e
:020000040000fa
:0403e400820900008a
:020000040000fa
:0403e8008209000086
:020000040000fa
:0403ec008209000082
:020000040000fa
:0403f000820900007e
:020000040000fa
:0403f400820900007a
:020000040000fa
:0403f8008209000076
:020000040000fa
:0403fc008209000072
:020000040000fa
:100400000fa320000e7f22000e01880000000000d4
:10041000000020000000e000020032000001200087
:100420002002880014000700b80307000000e00065
:1004300003003a00003a23000100200002003700c8
:100440000000200001002000810f70000100320038
:1004500014000700000020000000e000020032004d
:100460000000020000000000c43202000000000092
:100470000040da000000fe004440a900c00b20004c
:100480000000e000030032000020200090018800fe
:100490004440a800000006008a1f78008b1f7800e7
:1004a00000000600a1028800800478000000eb0034
:1004b0001f003700e284440054a0b4009905ba003c
:1004c000e284440054a0b4009906ba00e2844400d7
:1004d00054a0b4000006eb00476fde00fd07b20039
:1004e000ae018800636ce10003003a00eaff0700f8
:1004f0000000eb000e003700606ce10008003a00dd
:10050000004deb000a05e800020039003420ec0041
:100510000af0a0008b05e900f9ff3e000400370057
:100520006168e100010032000086eb000b0007006b
:1005300019c7ba001905ba000e04e00003003a001a
:100540000a00e000dbff3a0000000600fe07b200f0
:10055000ae0288008a047800f5ff37000cd0a300b3
:10056000e20f4d001c00390089027800354dba00b9
:100570000a05e800020039003420ec000af0a0006f
:100580008b05e9000f003200254dba000a05e8008e
:10059000020039003420ec000af0a0008b05e900cd
:1005a000080032000c00e0000600320015cdba0051
:1005b0000a05e800020039003420ec000af0a0002f
:1005c0008b05e9008984e80054a0b4000b00e0002a
:1005d000e2ff3a00000006009902ba00055d7800cb
:1005e0008b05e900f7ff3200c82ade00055d7800c0
:1005f0008b05e900f3ff32000c00e000f1ff320050
:1006000019ddba00eeff3700161c040000000000e0
:10061000341c040000000000321f04000000000031
:10062000501f0400000000004422040000000000ed
:1006300062220400000000005625040000000000b3
:1006400074250400000000003600f800809fbe0002
:10065000829fbe00849fbe00869fbe003200f800cd
:100660003400f80010002000a001880000202000c5
:10067000900188000000fa00f10407000080fa00f1
:100680003400f9003200f9004f03be004f02be00f3
:100690004f01be004f00be003600f90000400600ca
:1006a0003600f800809fbe00829fbe00849fbe007f
:1006b000869fbe000000fa008020a9000000eb0029
:1006c000d61807000080fa004f03be004f02be009c
:1006d0004f01be004f00be003600f900004006008a
:1006e0003600f800809fbe00829fbe00849fbe003f
:1006f000869fbe000000fa00cd1807008040a900c8
:1007000010002000c51807000080fa004f03be004b
:100710004f02be004f01be004f00be003600f90080
:10072000004006003600f800809fbe00829fbe0099
:10073000849fbe00869fbe000000fa008060a90072
:1007400020002000b51807000080fa004f03be000b
:100750004f02be004f01be004f00be003600f90040
:10076000004006003600f800809fbe00829fbe0059
:10077000849fbe00869fbe000000fa008080a90012
:1007800030002000a51807000080fa004f03be00cb
:100790004f02be004f01be004f00be003600f90000
:1007a000004006003600f800809fbe00829fbe0019
:1007b000849fbe00869fbe000000fa008a40a90008
:1007c000a117800000082000008060000000e00009
:1007d00008003200f4e2a9004028ef003042800017
:1007e000200090008000eb00010878004628ef0010
:1007f0000d013700004280008000eb00b2002000b5
:1008000003002000820f5000838f5800fc003e0040
:10081000006001000b003700390037007500370019
:100820009c003700f3003700c8003700d9003700bc
:10083000f0003700db003700f100370034003700ec
:10084000500037008083200020009000620060008c
:100850000000e000f3003a008083200010009000c8
:100860003042880080832000100090001040780003
:1008700042e8b70080832000100090001000900034
:10088000204288008083200010009000e600400095
:100890008083200011009800808320009000900049
:1008a00000962000808f500003003a0080832000d3
:1008b000a19520001100980080832000a0009000e6
:1008c0000100a1002100980080832000900090008a
:1008d0008083200010007800808f500004003a00d0
:1008e00080832000a00090000110a000210098004b
:1008f000f002a8002000200000428800ca00370053
:10090000f022a8002000200000428800c600370026
:10091000a117800000002800008060000000e000b7
:100920000800320080832000604090008040e80092
:10093000808320006140980040002000b61307002b
:10094000b9003700404280008000d100f00f200045
:1009500000806000601788004042800061006000f5
:10096000004078000004e00003003200b0002000e6
:1009700000428800ac0037003000200000428800b0
:10098000a9003700a1178000000028000080600047
:100990000000e000080032008083200060409000ea
:1009a0008040e800808320006140980040002000e3
:1009b000991307009c003700f022a80040428000f5
:1009c0004800de00e6006000000f2000010070001b
:1009d00040428800404280000000a0004042880061
:1009e00010c0b3004ae8b700200020000042880091
:1009f0008d0037004ac8bf00e14f50000a003200a6
:100a00002042800010007800404288002042800090
:100a1000200090006042880020428000204090002a
:100a20004ee8b700010037004a68ef0041428000fd
:100a3000f00f2000808f50000900360040428000f7
:100a40004800de00e6006000000f2000010070009a
:100a500060178800a0002000004288007200370064
:100a600040428000601788004042800061006000c2
:100a7000004078000004e000030032005000200035
:100a800000428800680037003000200000428800e3
:100a900065003700a117800000002800008060007a
:100aa0000000e000090032008083200060409000d8
:100ab0008040e8008083200061409800f5e2a900b2
:100ac0005000200054130700570037004ec8bf00e5
:100ad0008080fb008100e900cf08de0081407800c3
:100ae0000040e9004ee8b7000104e00010003200c9
:100af00020428000660040002042880042c8bf00bb
:100b00000040e90042e8b70042c8bf000004e0002e
:100b100003003a00200020003f1307004200370086
:100b2000f022a80020002000004288003e0037008c
:100b300060428000904078008180fb00611788004f
:100b40000000e8006042880037003700a1178000ed
:100b500000002800008060000000e0000900320072
:100b600080832000604090008040e8008083200067
:100b7000614098004000200027130700f5e2a9001b
:100b800029003700f062a8008000200000428800a1
:100b9000250037008000200000428800f062a80095
:100ba00021003700604280005117800081407800aa
:100bb000014878000000e800604288004ec8bf008d
:100bc0000040e9004ee8b7004ec8bf000004e00056
:100bd00004003200f0a2a90060002000004288005a
:100be00002003700f0a2a800fa120700f082a80065
:100bf0000d00370020002000071307000a0037000f
:100c000080832000604090008040e80080832000c6
:100c10006140980060002000ff1207000000000003
:100c200001003700000000000080fa004f03be0002
:100c30004f02be004f01be004f00be003600f9005b
:100c4000004006003600f800809fbe00829fbe0074
:100c5000849fbe00869fbe000000fa0040418000d5
:100c6000000001002141800010418000808f500071
:100c700002003a009580a900190037008580a9007c
:100c80001000370020418000904078008180fb00f8
:100c9000212888000000e8002041880021418000d0
:100ca00050972000808f500002003a00c09620002c
:100cb000204188002141800010418000808f500039
:100cc0000600320011288000002020000080600013
:100cd0000000e000ebff32000100370000000000e0
:100ce0000080fa004f03be004f02be004f01be005d
:100cf0004f00be003600f900004006003600f80044
:100d0000809fbe00829fbe00849fbe00869fbe0063
:100d10000000fa0050418000000001008560a90039
:100d20001e003700f04080003128800081407800ac
:100d300001487800f1408000d0972000808f50005b
:100d400009003200f04080008000e800004180008f
:100d5000808f500004003200f04080000000e80066
:100d6000f04088000d003700f1408000d09720004f
:100d7000808f500007003a0001418000509720000a
:100d8000808f50000300320050972000f040880010
:100d90000200370010c0b30026e8b700102880001a
:100da000610060000000e000deff3a000080fa0011
:100db0004f03be004f02be004f01be004f00be00f9
:100dc0003600f90000400600801f78000000fa009d
:100dd00010288000620060000000e0000100320086
:100de0000225a9008c20a9000080fa004f0078009d
:100df000004006003600f800809fbe00829fbe00c3
:100e0000849fbe00869fbe000000fa006041800003
:100e1000000001002141800010418000808f5000bf
:100e200002003a0097e0a9001900370087e0a90006
:100e30001000370020418000904078008180fb0046
:100e4000d12888000000e80020418800214180006e
:100e500050972000808f500002003a00c09620007a
:100e6000204188002141800010418000808f500087
:100e700006003200c12880000020200000806000b1
:100e80000000e000ebff320001003700000000002e
:100e90000080fa004f03be004f02be004f01be00ab
:100ea0004f00be003600f900004006003600f80092
:100eb000809fbe00829fbe00849fbe00869fbe00b2
:100ec0000000fa00704180000000010087c0a90006
:100ed0001e003700f0408000e1288000814078004b
:100ee00001487800f1408000d0972000808f5000aa
:100ef00009003200f04080008000e80000418000de
:100f0000808f500004003200f04080000000e800b4
:100f1000f04088000d003700f1408000d09720009d
:100f2000808f500007003a00014180005097200058
:100f3000808f50000300320050972000f04088005e
:100f40000200370010c0b30026e8b700c0288000b8
:100f5000610060000000e000deff3a000080fa005f
:100f60004f03be004f02be004f01be004f00be0047
:100f70003600f90000400600801f78000000fa00eb
:100f8000c0288000620060000000e0000100320024
:100f90001825a9008c40a9000080fa004f007800b5
:100fa000004006003600f800809fbe00829fbe0011
:100fb000849fbe00869fbe000000fa008041800032
:100fc000000001002141800010418000808f50000e
:100fd00002003a009e60a900190037008e60a90047
:100fe0001000370020418000904078008180fb0095
:100ff000812988000000e80020418800214180000c
:1010000050972000808f500002003a00c0962000c8
:10101000204188002141800010418000808f5000d5
:10102000060032007129800000202000008060004e
:101030000000e000ebff320001003700000000007c
:101040000080fa004f03be004f02be004f01be00f9
:101050004f00be003600f900004006003600f800e0
:10106000809fbe00829fbe00849fbe00869fbe0000
:101070000000fa0090418000000001008e40a900ad
:101080001e003700f04080009129800081407800e8
:1010900001487800f1408000d0972000808f5000f8
:1010a00009003200f04080008000e800004180002c
:1010b000808f500004003200f04080000000e80003
:1010c000f04088000d003700f1408000d0972000ec
:1010d000808f500007003a000141800050972000a7
:1010e000808f50000300320050972000f0408800ad
:1010f0000200370010c0b30026e8b7007029800056
:10110000610060000000e000deff3a000080fa00ad
:101110004f03be004f02be004f01be004f00be0095
:101120003600f90000400600801f78000000fa0039
:1011300070298000620060000000e00001003200c1
:101140002e25a9008e20a9000080fa004f0078000b
:10115000004006003600f800809fbe00829fbe005f
:10116000849fbe00869fbe000000fa00a041800060
:10117000000001002141800010418000808f50005c
:1011800002003a009f20a900190037008f20a90013
:101190001000370020418000904078008180fb00e3
:1011a000e12988000000e8002041880021418000fa
:1011b00050972000808f500002003a00c096200017
:1011c000204188002141800010418000808f500024
:1011d00006003200d129800000202000008060003d
:1011e0000000e000ebff32000100370000000000cb
:1011f0000080fa004f03be004f02be004f01be0048
:101200004f00be003600f900004006003600f8002e
:10121000809fbe00829fbe00849fbe00869fbe004e
:101220000000fa00b0418000000001008f00a9001a
:101230001e003700f0408000f129800081407800d6
:1012400001487800f1408000d0972000808f500046
:1012500009003200f04080008000e800004180007a
:10126000808f500004003200f04080000000e80051
:10127000f04088000d003700f1408000d09720003a
:10128000808f500007003a000141800050972000f5
:10129000808f50000300320050972000f0408800fb
:1012a0000200370010c0b30026e8b700d029800044
:1012b000610060000000e000deff3a000080fa00fc
:1012c0004f03be004f02be004f01be004f00be00e4
:1012d0003600f90000400600801f78000000fa0088
:1012e000d0298000620060000000e00001003200b0
:1012f0003a25a9008ee0a9000080fa004f0078008e
:10130000004006000040da000000fe00000005007a
:1013100014002000390037004f89de008201780078
:10132000510037006011b8005f003700889fbe0091
:101330008a9fbe008c1f7800b0000700b700330002
:1013400003866c006450e100240032006420e10058
:10135000270032006150e100220032006120e100ec
:10136000210032008b854200eb07b1000134b80048
:10137000003ab8000804420089844a00013ab800e3
:101380000030b8008880400009014a0004003300a2
:101390000000400081804800020149008b05e900ff
:1013a000c909dd0083017000010032001300200034
:1013b000c814de004814dd004709de001200b20048
:1013c000c808de00088470006600070001f0a10074
:1013d0000cf0a70001f0a000990037006120e100a7
:1013e0009b0032000801be000200be00f7ff37007c
:1013f0006150e100fcff3a0095003700889fbe0075
:101400008a9fbe00841f78007c0007004f00780090
:1014100011003300f0ff2f00838f6c0006003b00ab
:10142000040565000a00a7000800370009f0a600bf
:101430001000200008003700820f5400838f5c00ea
:10144000030039001000200001003e0000002000d1
:1014500009f0a7000000ea004f05be004f04be00df
:101460000000e00000000600881f780003047800f8
:101470000300e00007003d0060001000e08018005d
:1014800060011900e081190002003b0001f02d000d
:10149000030037000400070008f0a70001f0a000d7
:1014a0004f04780000000600889fbe008a9fbe009f
:1014b0000082700004027100048271002600320074
:1014c0000004be000200be006011b8006b092000dd
:1014d000950220000182cf000a0039000541b100c9
:1014e0000082cf00070039000541b1000982cf001a
:1014f000040039000541b1000882cf000100390025
:101500000541b10005425200120032000a003b00c2
:1015100082817100610164008100d1000080d300ec
:101520008984d3000884d3008b05e8000442e800d6
:10153000f7ff3a00070037000804440089844c0094
:1015400000004800818048008b05e9000442e90062
:10155000f9ff3a00030007004f05be004f04be002c
:101560000000060081002000618055000b003d0056
:101570000b00200061fe2f000100e1001d0034007f
:1015800082817100610164008904d1000884d30064
:101590000000e800faff3a007100200061006400da
:1015a0000300700002006000090032006104440082
:1015b000e0844c000988a500050032008b05e80096
:1015c0006808e10002003a008904d1000884d300d1
:1015d000f20f20000258e10005003d00c75ddd006c
:1015e000f907b20089807500080078000000060045
:1015f0000bf827008b007800000005000004be00f7
:10160000160007000003be000405be000200be0075
:1016100012000700844f7500000006000200be00a3
:101620006450e100050036006420e100020036004d
:101630000968a30001003a000800be000160a00094
:101640004f0678004f05be004f04be0000000600a4
:10165000f0ff2f00f1ff2700f9ff3700c70ade0077
:10166000f107b200f50fb20008003200e1cf4200ee
:10167000020032000170a00024000500810f7000fc
:10168000010032000408050044000500810f7000cd
:1016900002003a00140005008502e9000000400045
:1016a00081c04800fcff3b000170a0002400050041
:1016b0008001780002003700b15978000201e9008a
:1016c0000200e000fcff3a00000006008001780004
:1016d00002003700815978000201e9000200e000b1
:0816e000fcff3a0000000600c7
:020000040000fa
:1016e80012010000000200000200000000080000d3
:1016f800d80400000a0000000001000001020000f8
:10170800000100000902000043000000020100007f
:1017180000c00000320900000400000000010000c1
:101728000202000001000000052400000010000073
:101738000104000024020000020500002406000045
:10174800000100000524000001000000010700005e
:1017580005810000030a00000002000009040000df
:1017680001000000020a000000000000000700005d
:10177800050200000240000000000000070500000c
:101788008202000040000000000000000403000086
:1017980009040000340300004d0000006900000047
:1017a80063000000720000006f000000630000008a
:1017b80068000000690000007000000020000000c0
:1017c800540000006500000063000000680000008d
:1017d8006e0000006f0000006c0000006f00000049
:1017e80067000000790000002000000049000000a8
:1017f8006e000000630000002e0000001a030000c5
:1018080050000000720000006f000000640000003b
:101818007500000063000000740000002000000054
:101828004e000000610000006d000000650000002f
:10183800868b0000ca8b0000ce8b0000028c000053
:10184800810100000407000034ff0000810100004e
:081858000407000000ff00007e
:020000040000fa
:101860000200fa009ec0a9000080eb0070208800f2
:101870000080eb00502088002a24ef004200200066
:101880008000eb00c042200090ff070020002000f5
:10189000302188002824ef000644a900f009200028
:1018a00080208800f00920006020880002c4a80081
:1018b0000804a80000a020004800de00c020880026
:1018c0000040eb00004f7800070037001e80fb004f
:1018d000c200dd0000a02000008140006000b800d0
:1018e0000089be001e4fe8001e407800eb4f5000fc
:1018f000f6ff36001424a8001624ef0014a4a90053
:101900001424a9008000200050208800809120002d
:101910008040eb0001487800e09120008040eb001f
:1019200001487800f091200090407800e0c060000d
:10193000014878000092200090407800e0c06000ec
:101940000148780050208000680060000000e0003e
:10195000ecff3a0010c0b30013e8b70010c0b300aa
:1019600014e8b7001568ef001668ef000d68ef0087
:101970000040eb00004f7800150037001e80fb0090
:101980008000400000912000008040008000eb00bb
:10199000010878001e80fb0080004000a09020001d
:1019a000008040008000eb00010878001e80fb00f2
:1019b000319220000041eb00827078001e80fb0015
:1019c000619220000041eb00827078001e4fe80019
:1019d0001e407800e24f5000e8ff360080a0200053
:1019e00080488800d000200050218800909220007c
:1019f0001050880000a0200081c0b300014878008a
:101a000010a0200041c0b3000148780010a02000c1
:101a100010407800804078000174a00010a02000e1
:101a2000014878000268ef001828ef001a28ef003c
:101a30001c68ef000028ef000080fa00000006009c
:101a40000200fa0000408000e10f50000b003a0055
:101a5000a120800000042000008060000000e00061
:101a600006003a000080eb00502088000c04a8001b
:101a70000c84a80020002000004088000020800086
:101a8000700060000000e0000700320010208000bd
:101a9000700060000000e000030032000001200040
:101aa00000208800bc040700402080006200600025
:101ab0000000e000020032008ec0a900a100370043
:101ac00050208000610060000000e0000a00320049
:101ad00060208000610060000000e000060032002d
:101ae0005fff07009ec0a800400020000040880063
:101af00010002000502088005020800070006000fe
:101b00000000e000050032006020800070006000ee
:101b10000000e00001003200920407000120800074
:101b200000042000008060000000e000030032009c
:101b30000004200000208800ee06070050208000ee
:101b4000640060000000e0001400320060208000ab
:101b5000640060000000e000040032001200200079
:101b60008000eb00300720004c13070040002000ed
:101b70005020880011c8bf000004e00003003200bc
:101b800011c8bf000040e90011e8b70011c8bf004c
:101b90000004e00001003a00a3010700512080008a
:101ba00000082000008060000000e0000600320015
:101bb0006120800000082000008060000000e0003c
:101bc000010032004b0407005020800062006000da
:101bd0000000e0000c003200602080006200600025
:101be0000000e00008003200120020008000eb003e
:101bf000f0ff2700291307000080eb007020880009
:101c0000200020005020880000408000e30f50009a
:101c100002003e008ec0a9004a003700602080000c
:101c2000680060000000e000450032000040eb006a
:101c3000004f78003d0037005020800068006000b1
:101c40000000e0003d00320090208000004078005d
:101c50000ee8b7000ec8bf000080fb004400de00a5
:101c6000004078000fe8b700800020005020880076
:101c70000ec8bf00684060000004e00011003a0098
:101c80000fc8bf000081fb008080fb006092200035
:101c9000008040009040780061c060000004a20015
:101ca000e14060006092200000004100e1c060005f
:101cb000104178000204a1008140710001487800c1
:101cc000100037000fc8bf000081fb008080fb00c0
:101cd00030922000008040009040780061c0600099
:101ce0000004a200e14060003092200000004100aa
:101cf000e1c06000104178000204a1008140710041
:101d0000014878000fc8bf000004e00002003a005c
:101d10002d040700040037000001eb00e1802000e3
:101d200020072000dd1207001e4fe8001e4078004b
:101d3000e34f5000c0ff36000100370000000000f4
:101d40008ec0a9000080fa00000006000400fa001e
:101d500020479800314798003e4090000080fb00eb
:101d6000680060000000e000030032008040eb00eb
:101d70002e4090009b0107003e4090000080fb0039
:101d8000640060000000e0000300320011c0b300f6
:101d90002e40900093010700a14220002e409000a9
:101da0000080fb0000004000008f40001e00780013
:101db000be409000014878000080fa000000060054
:101dc0000800fa0020479800314798002207980041
:101dd000634798003e4090000004e0000700320096
:101de0002e4090000080fb00800040000091200009
:101df00000804000100f7800060037002e40900051
:101e00000080fb0080004000a09020000080400087
:101e1000100f78001e0078000000e00002003a0079
:101e20000000eb0037003700ae0090001e00780085
:101e3000110098001e007800ee40900001487800e4
:101e40001e0078001040900002c4b3008240600081
:101e50001e007800114098001e007800104090008d
:101e6000804078000134a0001e00780011409800e6
:101e70001e00780010409000804078000174a0009f
:101e80001e007800114098003e4090000004e000e1
:101e90000e0032002e4090000080fb00ae4090000b
:101ea0008180fb0001814000019120008100410000
:101eb000910078000120a200000140000091200064
:101ec00000004100010878000d0037002e4090000e
:101ed0000080fb00ae4090008180fb00018140004b
:101ee000a190200081004100910078000120a20013
:101ef00000014000a090200000004100010878008f
:101f00001e0078000080fa00000006000400fa00bd
:101f100020479800314798002e4090000004e000d0
:101f200017003a003040800081c0b30001487800bb
:101f300030408000919220001100980030408000d5
:101f4000c1c0b30011409800304080003140800093
:101f5000914090000174a0001140980080488000da
:101f600041c0b30011409800804880008148800043
:101f7000914090000174a000114098002e0037009d
:101f80002e4090000080fb000000400080007800a0
:101f90003e4090000080fb00008040004300dd00d8
:101fa0008000780000a02000008f40001e00780014
:101fb00010409000804078000124a0001e007800ae
:101fc000114098001e00780010409000804078007a
:101fd0000174a0001e007800114098002e4090006f
:101fe0000080fb0000004000800078003e40900030
:101ff0000080fb00008040004300dd00e400400062
:1020000000a02000008f40001e00780010409000cb
:10201000804078000124a0001e0078001140980044
:102020001e00780010409000804078000174a000ed
:102030001e007800114098000080fa0000000600a1
:102040000200fa00004f7800a1208000000220006a
:10205000008060000000e000510032001e80fb00a4
:1020600080004000009120000080400010027800b5
:102070001e80fb0080004000009120000080400096
:10208000100078001001be000004200001002000b4
:102090008202780003017800800178000100780056
:1020a00083826200000061008000eb00c000dd0060
:1020b000000020000001be006128b800000171008e
:1020c00081817100028abe001e80fb0080004000fa
:1020d0000091200000804000100278001e80fb006c
:1020e0008000400000912000008040001000780037
:1020f0001001be0000042000010020000000690063
:1021000081806900008abe001e80fb009e80fb006b
:102110000181400001912000810041009100780080
:102120000120a200000140000091200000004100b9
:10213000010878001e80fb00800040000091200014
:1021400000804000900078001e80fb0000014000ed
:102150000091200000004100100078001040900025
:102160000044b200904098001e80fb0080004000b8
:102170000091200000804000900078001e80fb004d
:102180000001400000912000000041001000780094
:102190001041900000c4b3000040690090409800d6
:1021a0000080fa00000006000000fa001424ef008e
:1021b0000c24ef000028ef000080fa000000060069
:1021c0000000fa00004080000000e00014003a0027
:1021d0001424ef000c24ef002000200030218800a0
:1021e0002824ef000644a900f00920008020880080
:1021f000f00920006020880002c4a8009ec0a8004a
:10220000010037001404a800a020800061006000d5
:102210000000e000fbff32001000200000408800ba
:102220000080fa00000006000000fa0013c8bf009a
:102230000004a2000004e0003400320010c0b3002b
:1022400013e8b70014c8bf000004a2000004e000b7
:102250002e00320010c0b30014e8b70009c8bf0058
:10226000e24f50000c003a00804880008040eb00b4
:10227000014878008048800081c4b3001140980074
:102280008048800081488000914090000174a00047
:10229000114098001d00370009c8bf00e14f5000f1
:1022a0001a003a001068ef002040800081c0b3009f
:1022b0000148780020408000919220001100980091
:1022c0002040800041c0b3001140980020408000b1
:1022d00021408000914090000174a00011409800be
:1022e00010c0b30010e8b7003040800081c0b300d8
:1022f0000148780030408000919220001100980041
:102300003040800001c8b300114098000080fa00fe
:10231000000006000000fa001568ef001668ef00e4
:1023200009c8bf00e24f50000f003a003040800063
:1023300081c0b30001487800304080001193200034
:10234000110098003040800081c4b3001140980013
:102350003040800031408000914090000174a00026
:10236000114098001d003700f09220001080fb0003
:10237000019320009180fb00c808dd00010070007f
:1023800080007800d0488000808f50000700310026
:10239000f09220001080fb00019320009180fb0050
:1023a000c808dd0001007000d048880096000700d2
:1023b0008048800011932000110098008048800020
:1023c00081c4b3001140980080488000814880009b
:1023d000914090000174a000114098000080fa0024
:1023e000000006000400fa002047980031479800da
:1023f00000a02000000f78002e4090000080fb001d
:1024000000004000800078003e4090000080fb000b
:10241000008040004300dd001e0f40001e007800d9
:102420009000780001f0a100010878003e40900083
:102430000004e00007003a002e4090000080fb00fe
:1024400080004000a0902000008040001e0878001e
:10245000060037002e4090000080fb008000400006
:1024600000912000008040001e0878001e007800c7
:102470009000780001e0a100010878009e0078003b
:10248000648040009000780001e0a000010878001e
:102490000080fa00000006000000fa0014a4a90061
:1024a000c148800000082000008060000000e000bb
:1024b00027003a00e09120009040780000c8b30067
:1024c00000c060000004e0000a00320020c0b30039
:1024d00009e8b70016c8bf000004a2000004e0002d
:1024e000010032008bff07001468ef001368ef0053
:1024f000430037003040800081c0b30001487800bd
:1025000030408000919220001100980030408000ff
:10251000c1c0b300114098003040800031408000bd
:10252000914090000174a000114098008048800004
:1025300041c0b3001140980080488000814880006d
:10254000914090000174a000114098002c003700c9
:10255000909220009040780000c8b30000c0600056
:102560000004e0000f00320010c0b30009e8b7001b
:1025700015c8bf000004a2000004e0000100320002
:1025800064ff07001468ef001368ef0012c8bf0073
:102590000004a2000004e0001900320022ff07003e
:1025a0001700370020c0b30009e8b70030408000b2
:1025b00081c0b30001487800304080009192200033
:1025c000110098003040800041c0b30011409800d5
:1025d0003040800031408000914090000174a000a4
:1025e000114098001468ef001368ef0012c8bf0094
:1025f0000004a2000004e000010032000aff07000e
:102600000080fa00000006000200fa0080c0b3005b
:10261000004f7800d0488000e70f50000d003e00ca
:10262000d0488000004f780008c8bf000004e000d8
:1026300003003a0010c0b30008e8b70005003700f7
:1026400008c8bf00e14f500002003a0020c0b300ac
:1026500008e8b700d14880001e80fb0000805000d1
:10266000d0488800804880001e48780010932000e1
:1026700050408800c0488000610060000000e00019
:1026800017003a000900370051408000b048800030
:1026900010417800824878008100e80051408800ad
:1026a0000000e800b04888001e4fe9001e40780096
:1026b0000004e000f4ff3a000c00370051408000b5
:1026c000b048800010417800824878008100e8001e
:1026d000514088000000e800b04888001e4fe90023
:1026e0001e4078000004e000f4ff3a000080fa0089
:1026f000000006000200fa0020408000104f780021
:102700009e80fb00f09120001080fb0002922000d0
:102710001281fb004811dd0002007000808f500024
:1027200007003600f09120001080fb00019220008d
:102730009180fb00c808dd0001007000004f7800a8
:10274000f09120001080fb00019220009180fb009e
:10275000c808dd0001007000800078001e80fb00ca
:1027600000805000f10f200001016000f191200075
:1027700091417800e0c1610002c171008248780097
:10278000c800de0000922000104178006041610026
:1027900081407100014878000040eb00104798002c
:1027a0001c003700c09120001080fb00d191200058
:1027b0009180fb00c808dd00010070009e40900081
:1027c0008180fb0012932000e2c07800014878006d
:1027d0000000e800f10f200001016000c19120001d
:1027e00091417800e0c1610002c171008248780027
:1027f000c800de00d09120001041780060416100e7
:1028000081407100014878001e4090000040e800bf
:10281000104798001e4090009e4f5000e1ff390085
:10282000f09120001080fb00019220009180fb00bd
:10283000c808dd00010070000000e0001e0032004a
:102840003040800081c0b3000148780030408000f3
:102850001193200011009800204080009000780023
:1028600000002400008060000000e00009003a0041
:102870003040800081c4b300114098003040800097
:1028800031408000914090000174a00011409800f8
:102890002f0037003040800081c0b3001140980005
:1028a0003040800031408000914090000174a000d1
:1028b00011409800260037003040800081c0b300ee
:1028c000014878003040800091922000110098006b
:1028d0003040800041c0b30011409800304080007b
:1028e00031408000914090000174a0001140980098
:1028f000109220001080fb00219220009180fb00ac
:10290000c808dd00010070000000e0000700320090
:10291000109220001080fb00219220009180fb008b
:10292000c808dd000100700000000100e0912000f7
:10293000904078000174a1000148780012c8bf00df
:102940000004a2000004e0000100320036fe07008f
:102950000080fa00000006000200fa00c048800073
:102960000070a000c0488800420020008000eb00fa
:10297000c042200055fb0700020320008000eb004e
:1029800000a0200051fb07001424a8000040eb0029
:10299000004f7800090037001e80fb0031922000b4
:1029a0000041eb00827078001e80fb0061922000e5
:1029b0000041eb00827078001e4fe8001e40780056
:1029c000e24f5000f4ff3600220020008000eb00b0
:1029d000809020003dfb07001424a90080a0200067
:1029e0008048880000a0200020408800204080000f
:1029f00030408800b09220001040780002e8b70014
:102a000002c8bf000004e00003003a0000012000fb
:102a100000408800060037001200200021802000be
:102a2000100020009d0f07000002200000408800d9
:102a30000080fa00000006000000fa0090922000da
:102a40009040780000c8b30080cf500047003a00a3
:102a50008091200001ccb30001487800c092200092
:102a6000104078000080fb00e20f500009003200a7
:102a7000e30f500023003200e10f500037003a000e
:102a800040b72800b048880020012000d0488800c6
:102a900036003700b0922000104078000004e000bb
:102aa00014003a00b0922000104078000080fb0033
:102ab0000000400080007800c0c128000080400075
:102ac00010007800b0488800b04880000080e8001e
:102ad00090407800a091200001487800b048800024
:102ae0006300400090407800b091200001487800d9
:102af0001e003700809120008040eb0001487800e4
:102b00001a003700b092200010407800e24f5000c9
:102b10000e003e00b0922000104078000080fb00c4
:102b20000000400080007800e0c1280000804000e4
:102b300010007800b0488800b0488000104078004d
:102b40000080fb00d04888000800370080912000fa
:102b50008040eb000148780004003700809120009d
:102b60008040eb0001487800000000000080fa007f
:102b7000000006000200fa00109320008040eb00e5
:102b800001487800209320008040eb000148780045
:102b900090922000904078007fc060000080fb0091
:102ba000e10f500011003200e20f5000130032001c
:102bb0000000e00040003a00c04880000070a00023
:102bc000c04888000cc8bf000004e0003500320097
:102bd0001093200010407800804078000114a0007d
:102be000109320000148780033003700c04880006f
:102bf0000070a000c04888002f003700c048800047
:102c00000070a000c0488800d0922000904078005a
:102c100000c8b30000c060000004e00009003a00f2
:102c2000d0922000904078006fc060000080fb00d0
:102c300080004000a090200000804000100f78002d
:102c400008003700d0922000904078006fc06000ec
:102c50000080fb00800040000091200000804000c8
:102c6000100f78001e007800900078000000280007
:102c7000008060000000e0000c0032001e007800c0
:102c80009000780000402000008060000000e0001c
:102c9000080032001093200011c0b30001487800f2
:102ca00005003700000000000300370000000000ae
:102cb0000100370000000000c1488000000820002b
:102cc000008060000000e000080032001093200047
:102cd000b0488800c04880000000a000c0488800bc
:102ce000a091200021c0b300014878000080fa00c4
:102cf000000006000000fa00502180006200600021
:102d00000000e0001300320020408000904090005e
:102d100000c8b30080cf50000d003a00804880000a
:102d20009040900040c8b30080cf500008003a00a7
:102d300020408000c1c0b3001140980020408000b6
:102d400021408000914090000174a0001140980043
:102d50002a24a90000082000502088000080fa00e2
:102d6000000006000000fa000284a8000001200014
:102d70005020880010c0b3000de8b7001c68ef00b9
:102d80000001eb008000eb0050072000c30e07009d
:102d90000080fa00000006000000fa000d68ef0055
:102da0000001eb008000eb0040072000bb0e070095
:102db0000284a90000012000002088001c68ef00a8
:102dc0000080fa00000006000000fa00d0c2b30044
:102dd00011e8b7000ec8bf000080fb000020a10072
:102de0000000e0001f003a000ec8bf000080fb009a
:102df0004200de00004078000080fb00c200dd00e1
:102e000000a020000080400020408800204080007a
:102e100030408800304080000020a2003040880010
:102e2000204080009000780000c023008080600077
:102e300000402300808f500008003a0020408000ae
:102e40001000900082002000800078009092200006
:102e500017fa07000b000700080037003d000700c5
:102e6000060037000ec8bf000080fb000020a10054
:102e7000e80f500001003a00530007000080fa00fc
:102e8000000006000000fa000868ef001268ef007a
:102e90001568ef001668ef001068ef000968ef0092
:102ea0008048800081488000914090000174a1001a
:102eb00011409800804880000020a20080488800cf
:102ec0008048800081488000914090000174a100fa
:102ed00011409800804880000020a20080488800af
:102ee0003040800031408000914090000174a1008a
:102ef00011409800809120008040eb00014878004c
:102f00000000eb00d0488800e09120008040eb00fa
:102f100001487800f091200090407800e0c0600007
:102f2000014878000092200090407800e0c06000e6
:102f300001487800820007000001eb008000eb00f0
:102f400030002000550e070053fd07000080fa00f6
:102f5000000006000000fa0009c8bf00e24f500060
:102f600002003a00e3fd0700150037000968ef0092
:102f700010c8bf000004a2000004e0000f003200ef
:102f80003040800081c0b3000148780030408000ac
:102f9000919220001100980030408000c1c0b30021
:102fa00011409800304080003140800091409000f6
:102fb0000174a00011409800010037001068ef0074
:102fc0000080fa00000006000200fa00804880003d
:102fd000100078004e00de0061406000004f780075
:102fe000804880000020a2008048880000408000c7
:102ff000e80f50000e003a00b09220001040780018
:103000008080fb00f007200000806000b020880076
:10301000b02080000000e00003003200000120002a
:103020000040880002003700400020000040880077
:1030300009c8bf00e14f500025003a0080488000d9
:1030400011932000110098006ffd070008c8bf0011
:10305000e24f500009003a008048800041c0b300b0
:103060001140980080488000814880009140900085
:103070000174a000114098002f0037001e40780016
:103080000004e00009003a008048800081c4b300d9
:103090001140980080488000814880009140900055
:1030a0000174a00011409800230037008048800080
:1030b00081c0b300114098008048800081488000a2
:1030c000914090000174a000114098001a00370050
:1030d000e09120009040780000c8b30000c060007c
:1030e0000004e00013003200109220001080fb006a
:1030f000219220009180fb00c808dd0001007000d3
:103100000000e00007003200109220001080fb0059
:10311000219220009180fb00c808dd0001007000b2
:1031200000000100e0912000904078000174a100af
:10313000014878000968ef000080fa0000000600ee
:103140000000fa0090922000104078000046b20083
:103150000004e00050003a00a092200010407800e7
:103160000080fb00cf80de00b200200003002000c2
:10317000820f5000838f580049003e00006001001c
:1031800021003700220037004700370020003700b9
:1031900045003700060037000b00370039003700c4
:1031a0000d0037000a0037001b0037002a003700e7
:1031b000c04880000070a000c04888008000200047
:1031c00000408800390037001bfe07003700370039
:1031d000e1fd07003500370020802000b04888005e
:1031e000c04880000000a000c0488800a0912000d6
:1031f00011c0b30001487800c04880000070a000f2
:10320000c0488800290037005afe07002700370011
:103210002800070025003700d092200010407800d9
:103220008080fb008090200000804000b048880033
:10323000c04880000000a000c0488800a091200085
:1032400011c0b30001487800c04880000070a000a1
:10325000c048880015003700c04880000070a000fa
:10326000c0488800d0922000104078000080fb0009
:10327000b192200011417800819020008270780086
:103280000a0037000001eb008000eb002000200066
:10329000820d070005003700000000000300370022
:1032a0000000000001003700000000000080fa006c
:1032b000000006000600fa00b092200010407800de
:1032c000e14f500010003a0090922000104078002a
:1032d0007f4060000004e0000b003a00c04880001e
:1032e0000070a000c0488800a09220001040780024
:1032f000e34f500003003a0010c0b3000ce8b700e1
:10330000010037000c68ef00b092200010407800f8
:103310000004e000f5003a00909220001040780090
:103320007f406000e24f5000f0003a00d092200051
:10333000104078006f4060000004e000eb003200b5
:10334000d0922000904078006fc060000080fb00a9
:10335000e20f5000e5003c00014080000002200028
:10336000808f5000e1003a00c04880000070a0004b
:10337000c0488800d09220009040780000c8b30078
:1033800000c060000004e00010003a00d09220006d
:10339000104178006f4061000080fb008000400019
:1033a000a090200000804000100f7800d0922000f4
:1033b000904078006fc060000080fb0061922000a8
:1033c00061407800404798000f003700d0922000fd
:1033d000104178006f4061000080fb0080004000d9
:1033e0000091200000804000100f7800d092200053
:1033f000904078006fc060000080fb003192200098
:1034000061407800404798004e4090006140600065
:103410000004e00004003a001e0078000020a10033
:10342000000f7800030037001e0078000020a00085
:10343000000f7800d09220009040780000c8b300c0
:1034400000c060000004e0000a003a00d0922000b2
:10345000104178006f4061000080fb009e00780002
:1034600000014000a0902000000041000108780009
:1034700009003700d0922000904078006fc06000b3
:103480000080fb009e0078000001400000912000b9
:103490000000410001087800a09220001040780050
:1034a000e34f50002c003a001e0078009000780096
:1034b00000002800008060000000e00019003200d9
:1034c000d09220009040780000c8b30000c0600097
:1034d0000004e0000a003a00d09220001041780079
:1034e0006f4061008080fb006092200000804000ff
:1034f000904078000114a0000148780009003700ce
:10350000d0922000904078006fc060008080fb0067
:103510003092200000804000904078000114a0000c
:10352000014878001e00780010409000804078002c
:103530000124a0001e007800114098001e007800b1
:1035400010409000804078000174a0001e007800b8
:1035500011409800650037001e0078000020a2008e
:10356000000f78001e00780090007800000028000e
:10357000008060000000e000110032001e007800b2
:1035800010409000804078000174a1001e00780077
:10359000114098001e007800104090008040780094
:1035a0000164a0001e007800114098002200200055
:1035b0009e00780050002000b80c0700060037007d
:1035c0001e00780010409000804078000164a00048
:1035d0001e007800114098001e0078000020a20014
:1035e000000f78004e409000624060000004e00050
:1035f00006003a001e0078009000780000002800c5
:10360000008060000000e00024003200d092200022
:103610009040780000c8b30000c060000004e000e3
:103620000a003a00d0922000104178006f406100fb
:103630008080fb0060922000008040009040780075
:103640000114a1000148780009003700d092200041
:10365000904078006fc060008080fb0030922000b6
:1036600000804000904078000114a10001487800db
:103670001e00780010409000b2c3b300824060008a
:103680001e00780011409800220020009e00780063
:1036900050002000810c0700060037001e00780053
:1036a00010409000b2c3b300824060001e0078005a
:1036b00011409800a1422000d092200010417800d3
:1036c0006f4061000080fb0000004000008040006f
:1036d000100798001e00900010407800804078008d
:1036e0000114a1001e009000014878000080fa003b
:1036f000000006000000fa00c0408000d1408000b9
:1037000061004000e0804800c0408800d14088004f
:103710000dc8bf000004a2000004e0000800320051
:103720001cc8bf000040e8001ce8b7001cc8bf0070
:103730000004e00002003a0000c0eb001ce8b70003
:103740000080fa00000006000400fa00c240800079
:10375000d3408000028fbe00c0408000d140800076
:103760001e01be00800f5100818f5900f7ff3a0003
:103770001e00be000080fa00000006000000fa00f3
:103780009580a9009560a90080002000002888008d
:103790000225ef0090012000402888000a25ef0054
:1037a0000c25ef000e25ef001025ef001225ef008d
:1037b0001425ef00c096200020418800c09620000c
:1037c0001041880050972000004188005097200049
:1037d000f04088002668ef0060c121000700070064
:1037e00040c32100140007009560a80001e5a8006f
:1037f0000345a8000080fa00000006000200fa005d
:10380000000f78001e0078000000e00003003a007e
:1038100060c1210040418800020037009e0078000e
:10382000414188000080fa00000006000000fa0014
:103830000080fa00000006000200fa00000f780085
:103840001e0078000000e00003003a0040c32100a1
:1038500050418800020037009e00780051418800e6
:103860000080fa00000006000000fa000080fa0064
:10387000000006000200fa000040eb00004f780054
:103880000000000001418000f0408000808f500067
:10389000fcff320000418000104f780000418000a2
:1038a0000000e8000041880001418000e09720000e
:1038b000808f500002003a0050972000004188009d
:1038c0001e4078000080fa00000006000200fa00a6
:1038d000004f7800000000001c0007000004a20058
:1038e0000004e000fcff3a00104180001e48780010
:1038f000104180000000e800104188001141800064
:1039000050972000808f500002003a00c09620009f
:10391000104188009580a8000080fa000000060091
:103920000000fa0001418000f04080000080680043
:1039300000f0a7000000ea000000ea004f00de00ef
:10394000004078000080fa00000006000400fa0041
:103950002141800011079800114180001e00900055
:10396000808f5000060031009e00900010418000c2
:10397000008050000000e900000f780005003700cb
:103980009e009000104180000080500068004000c0
:10399000000f78001e00780000f0a7000000ea0089
:1039a0000000ea004f00de00004078000080fa00ce
:1039b000000006000000fa00114180002041800054
:1039c000808f500009003a0011288000001020006c
:1039d0000080600000f0a7000000ea000000ea009c
:1039e0004f00de0000407800010037000040eb008f
:1039f0000080fa00000006000400fa00f140800098
:103a000011079800004180009e009000808f5000b8
:103a1000060031009e0090000041800000805000b0
:103a200069004000000f7800040037009e009000fd
:103a30000041800000805000000f7800f00f20004f
:103a40009e007800808f50000200360000c0eb001e
:103a5000020037001e007800004078000080fa0065
:103a6000000006000400fa002141800011079800c0
:103a7000114180001e009000808f50000600310030
:103a80009e00900010418000008050000000e9007e
:103a9000000f7800050037009e0090001041800064
:103aa0000080500068004000000f7800f00f2000f8
:103ab0009e007800808f50000200360000c0eb00ae
:103ac000020037001e007800004078000080fa00f5
:103ad000000006000800fa0020079800310798004f
:103ae000c5ff07000080fb00000f78003e0090003b
:103af0009e0f500002003100be009000010f7800c0
:103b00000000eb00100798000900370059ff07007c
:103b1000ae009000804878002e0090000000e80081
:103b2000200798001e0090000000e8001007980091
:103b30001e0090009e0f5000f4ff39001e00780018
:103b40000080fa00000006000800fa002007980034
:103b500031079800c3ff07000080fb00000f7800ca
:103b60003e0090009e0f500002003100be00900009
:103b7000010f78000000eb001007980009003700e3
:103b80002e00900010407800ae0090008100e80008
:103b9000210798004dff07001e0090000000e8007c
:103ba000100798001e0090009e0f5000f4ff39008f
:103bb0001e0078000080fa00000006000400fa00f1
:103bc0000000eb00000f78008bff070020479800f3
:103bd000a4ff0700304798002e4090000080fb00b3
:103be0000000e00003003200e90f50000300320043
:103bf000040037001e20a000040037001e00a000b3
:103c0000020037001e10a000000000003e4090009f
:103c10000080fb000000e00003003200e90f5000cc
:103c200003003200040037001e30a00002003700fd
:103c30001e40a000000000001e0078000080fa0076
:103c4000000006000400fa001007980001418000ff
:103c50001e009000008f4000020037009e00780098
:103c6000698f5000e09720009e007800808f500000
:103c7000faff3e001e007800104078000080fa0035
:103c8000000006000000fa005bff07000080fb0058
:103c90000000e9004f00de00004078000080fa00dc
:103ca000000006000000fa006eff07000080fb0025
:103cb0000000e9004f00de00004078000080fa00bc
:103cc000000006000000fa00102880000080fa00c2
:103cd000000006000000fa0062ff07000004e00098
:103ce000100032002141800010418000808f500080
:103cf00006003600204180008000780010418000de
:103d0000008050000000e9000700370020418000db
:103d10008000780010418000008050006800400062
:103d2000010037000000eb000080fa0000000600f0
:103d30000000fa0030ff07000004e000100032002d
:103d400001418000f0408000808f50000600360066
:103d50000041800080007800f0408000008050002a
:103d60000000e90007003700004180008000780073
:103d7000f0408000008050006800400001003700e3
:103d80000000eb000080fa00000006000000fa00ce
:103d900001e5a8000345a8000080fa000000060025
:103da0000000fa0001e5a9000345a9000080fa001f
:103db000000006000000fa0097e0a90097c0a900e3
:103dc00080002000b02888001825ef009001200016
:103dd000f02888002025ef002225ef002425ef00a1
:103de0002625ef002825ef002a25ef00c0962000a9
:103df00020418800c0962000104188005097200084
:103e00000041880050972000f04088002668ef00ad
:103e100020f321000700070000f52100140007002f
:103e200097c0a80017e5a8001945a8000080fa006f
:103e3000000006000200fa00000f78001e00780063
:103e40000000e00003003a0020f3210060418800f8
:103e5000020037009e007800614188000080fa006f
:103e6000000006000000fa000080fa0000000600d2
:103e70000200fa00000f78001e0078000000e00049
:103e800003003a0000f5210070418800020037006d
:103e90009e007800714188000080fa000000060052
:103ea0000000fa000080fa00000006000200fa009c
:103eb0000040eb00004f780000000000014180004e
:103ec000f0408000808f5000fcff320000418000f5
:103ed000104f7800004180000000e8000041880099
:103ee00001418000e0972000808f500002003a00de
:103ef00050972000004188001e4078000080fa00a2
:103f0000000006000200fa00004f780000000000e8
:103f10001c0007000004a2000004e000fcff3a00bf
:103f2000104180001e487800104180000000e80029
:103f3000104188001141800050972000808f500070
:103f400002003a00c09620001041880097e0a800c7
:103f50000080fa00000006000000fa000141800025
:103f6000f04080000080680000f0a7000000ea0038
:103f70000000ea004f00de00004078000080fa00f8
:103f8000000006000400fa0021418000110798009b
:103f9000114180001e009000808f5000060031000b
:103fa0009e00900010418000008050000000e90059
:103fb000000f7800050037009e009000104180003f
:103fc0000080500068004000000f78001e0078005c
:103fd00000f0a7000000ea000000ea004f00de0049
:103fe000004078000080fa00000006000000fa009f
:103ff0001141800020418000808f500009003a006c
:10400000c1288000001020000080600000f0a700a0
:104010000000ea000000ea004f00de0000407800e7
:10402000010037000040eb000080fa0000000600ad
:104030000400fa00f1408000110798000041800060
:104040009e009000808f5000060031009e0090007e
:10405000004180000080500069004000000f78009f
:10406000040037009e009000004180000080500056
:10407000000f7800f00f20009e007800808f500025
:104080000200360000c0eb00020037001e0078007e
:10409000004078000080fa00000006000400fa00ea
:1040a0002141800011079800114180001e009000fe
:1040b000808f5000060031009e009000104180006b
:1040c000008050000000e900000f78000500370074
:1040d0009e00900010418000008050006800400069
:1040e000000f7800f00f20009e007800808f5000b5
:1040f0000200360000c0eb00020037001e0078000e
:10410000004078000080fa00000006000800fa0075
:104110002007980031079800c5ff07000080fb00ca
:10412000000f78003e0090009e0f5000020031000a
:10413000be009000010f78000000eb00100798000f
:104140000900370059ff0700ae0090008048780052
:104150002e0090000000e800200798001e0090004c
:104160000000e800100798001e0090009e0f50000d
:10417000f4ff39001e0078000080fa0000000600fd
:104180000800fa002007980031079800c3ff0700d5
:104190000080fb00000f78003e0090009e0f500052
:1041a00002003100be009000010f78000000eb001b
:1041b00010079800090037002e009000104078008a
:1041c000ae0090008100e800210798004dff070035
:1041d0001e0090000000e800100798001e009000ec
:1041e0009e0f5000f4ff39001e0078000080fa0096
:1041f000000006000400fa000000eb00000f780049
:104200008bff070020479800a4ff07003047980065
:104210002e4090000080fb000000e0000300320010
:10422000e90f500003003200040037001e20a000f8
:10423000040037001e00a000020037001e10a0007e
:10424000000000003e4090000080fb000000e00005
:1042500003003200e90f5000030032000400370071
:104260001e30a000020037001e40a0000000000029
:104270001e0078000080fa00000006000400fa002a
:1042800010079800014180001e009000008f400040
:10429000020037009e007800698f5000e0972000f0
:1042a0009e007800808f5000faff3e001e007800cc
:1042b000104078000080fa00000006000000fa00bc
:1042c0005bff07000080fb000000e9004f00de00fc
:1042d000004078000080fa00000006000000fa00ac
:1042e0006eff07000080fb000000e9004f00de00c9
:1042f000004078000080fa00000006000000fa008c
:10430000c02880000080fa00000006000000fa00cb
:1043100062ff07000004e00010003200214180002d
:1043200010418000808f5000060036002041800040
:104330008000780010418000008050000000e900fb
:104340000700370020418000800078001041800085
:104350000080500068004000010037000000eb00c2
:104360000080fa00000006000000fa0030ff07009d
:104370000004e0001000320001418000f0408000a5
:10438000808f5000060036000041800080007800d9
:10439000f0408000008050000000e9000700370076
:1043a0000041800080007800f040800000805000d4
:1043b00068004000010037000000eb000080fa00b8
:1043c000000006000000fa0017e5a8001945a80043
:1043d0000080fa00000006000000fa0017e5a900be
:1043e0001945a9000080fa00000006000000fa004c
:1043f0009e60a9009e40a9008000200060298800de
:104400002e25ef0090012000a02988003625ef001e
:10441000c096200020418800c096200010418800ee
:10442000509720000041880050972000f0408800fd
:104430002668ef0040242200070007002026220003
:10444000140007009e40a8002de5a8002f45a800f5
:104450000080fa00000006000200fa00000f780059
:104460001e0078000000e00003003a004024220013
:1044700080418800020037009e007800814188005a
:104480000080fa00000006000000fa000080fa0038
:10449000000006000200fa00000f78001e007800fd
:1044a0000000e00003003a0020262200904188002e
:1044b000020037009e007800914188000080fa00d9
:1044c000000006000000fa000080fa00000006006c
:1044d0000200fa000040eb00004f780000000000ee
:1044e00001418000f0408000808f5000fcff3200ce
:1044f00000418000104f7800004180000000e8007b
:104500000041880001418000e0972000808f50002a
:1045100002003a0050972000004188001e407800b9
:104520000080fa00000006000200fa00004f780048
:10453000000000001c0007000004a2000004e000ce
:10454000fcff3a00104180001e48780010418000b6
:104550000000e800104188001141800050972000c1
:10456000808f500002003a00c09620001041880061
:104570009e60a8000080fa00000006000000fa001b
:1045800001418000f04080000080680000f0a7003a
:104590000000ea000000ea004f00de000040780062
:1045a0000080fa00000006000400fa0021418000ab
:1045b00011079800114180001e009000808f50006c
:1045c000060031009e0090001041800000805000e5
:1045d0000000e900000f7800050037009e00900001
:1045e000104180000080500068004000000f7800fb
:1045f0001e00780000f0a7000000ea000000ea00ba
:104600004f00de00004078000080fa000000060045
:104610000000fa001141800020418000808f50008e
:1046200009003a007129800000102000008060001d
:1046300000f0a7000000ea000000ea004f00de00e2
:1046400000407800010037000040eb000080fa00d5
:10465000000006000400fa00f140800011079800f5
:10466000004180009e009000808f500006003100c5
:104670009e009000004180000080500069004000d2
:10468000000f7800040037009e0090000041800079
:1046900000805000000f7800f00f20009e0078008e
:1046a000808f50000200360000c0eb00020037008f
:1046b0001e007800004078000080fa00000006002c
:1046c0000400fa0021418000110798001141800088
:1046d0001e009000808f5000060031009e00900068
:1046e00010418000008050000000e900000f7800b9
:1046f000050037009e0090001041800000805000af
:1047000068004000000f7800f00f20009e00780045
:10471000808f50000200360000c0eb00020037001e
:104720001e007800004078000080fa0000000600bb
:104730000800fa002007980031079800c5ff07001d
:104740000080fb00000f78003e0090009e0f50009c
:1047500002003100be009000010f78000000eb0065
:10476000100798000900370059ff0700ae009000bd
:10477000804878002e0090000000e8002007980094
:104780001e0090000000e800100798001e00900036
:104790009e0f5000f4ff39001e0078000080fa00e0
:1047a000000006000800fa00200798003107980072
:1047b000c3ff07000080fb00000f78003e00900060
:1047c0009e0f500002003100be009000010f7800e3
:1047d0000000eb0010079800090037002e00900041
:1047e00010407800ae0090008100e800210798009a
:1047f0004dff07001e0090000000e8001007980021
:104800001e0090009e0f5000f4ff39001e0078003b
:104810000080fa00000006000400fa000000eb002f
:10482000000f78008bff070020479800a4ff0700c7
:10483000304798002e4090000080fb000000e00010
:1048400003003200e90f500003003200040037007b
:104850001e20a000040037001e00a0000200370048
:104860001e10a000000000003e4090000080fb00f1
:104870000000e00003003200e90f500003003200a6
:10488000040037001e30a000020037001e40a000c8
:10489000000000001e0078000080fa000000060002
:1048a0000400fa0010079800014180001e009000eb
:1048b000008f4000020037009e007800698f500092
:1048c000e09720009e007800808f5000faff3e00a5
:1048d0001e007800104078000080fa0000000600fa
:1048e0000000fa005bff07000080fb000000e90009
:1048f0004f00de00004078000080fa000000060053
:104900000000fa006eff07000080fb000000e900d5
:104910004f00de00004078000080fa000000060032
:104920000000fa00702980000080fa0000000600f4
:104930000000fa0062ff07000004e00010003200ef
:104940002141800010418000808f50000600360019
:1049500020418000800078001041800000805000dd
:104960000000e90007003700204180008000780047
:1049700010418000008050006800400001003700b6
:104980000000eb000080fa00000006000000fa00c2
:1049900030ff07000004e0001000320001418000f9
:1049a000f0408000808f50000600360000418000fb
:1049b00080007800f0408000008050000000e90096
:1049c000070037000041800080007800f040800040
:1049d0000080500068004000010037000000eb003c
:1049e0000080fa00000006000000fa002de5a80093
:1049f0002f45a8000080fa00000006000000fa0021
:104a00002de5a9002f45a9000080fa00000006004e
:104a10000000fa009f20a9009f00a900800020004c
:104a2000c02988003a25ef0090012000002a880064
:104a30004225ef00c096200020418800c09620004b
:104a400010418800509720000041880050972000b6
:104a5000f04088002668ef0060552200070007003c
:104a600040572200140007009f00a80039e5a80065
:104a70003b45a8000080fa00000006000200fa0092
:104a8000000f78001e0078000000e00003003a00ec
:104a900060552200a0418800020037009e00780087
:104aa000a14188000080fa00000006000000fa0022
:104ab0000080fa00000006000200fa00000f7800f3
:104ac0001e0078000000e00003003a00405722007a
:104ad000b0418800020037009e007800b141880094
:104ae0000080fa00000006000000fa000080fa00d2
:104af000000006000200fa000040eb00004f7800c2
:104b00000000000001418000f0408000808f5000d4
:104b1000fcff320000418000104f7800004180000f
:104b20000000e8000041880001418000e09720007b
:104b3000808f500002003a0050972000004188000a
:104b40001e4078000080fa00000006000200fa0013
:104b5000004f7800000000001c0007000004a200c5
:104b60000004e000fcff3a00104180001e4878007d
:104b7000104180000000e8001041880011418000d1
:104b800050972000808f500002003a00c09620000d
:104b9000104188009f20a8000080fa000000060055
:104ba0000000fa0001418000f040800000806800b1
:104bb00000f0a7000000ea000000ea004f00de005d
:104bc000004078000080fa00000006000400fa00af
:104bd0002141800011079800114180001e009000c3
:104be000808f5000060031009e0090001041800030
:104bf000008050000000e900000f78000500370039
:104c00009e0090001041800000805000680040002d
:104c1000000f78001e00780000f0a7000000ea00f6
:104c20000000ea004f00de00004078000080fa003b
:104c3000000006000000fa001141800020418000c1
:104c4000808f500009003a00d12980000010200018
:104c50000080600000f0a7000000ea000000ea0009
:104c60004f00de0000407800010037000040eb00fc
:104c70000080fa00000006000400fa00f140800005
:104c800011079800004180009e009000808f500026
:104c9000060031009e00900000418000008050001e
:104ca00069004000000f7800040037009e0090006b
:104cb0000041800000805000000f7800f00f2000bd
:104cc0009e007800808f50000200360000c0eb008c
:104cd000020037001e007800004078000080fa00d3
:104ce000000006000400fa0021418000110798002e
:104cf000114180001e009000808f5000060031009e
:104d00009e00900010418000008050000000e900eb
:104d1000000f7800050037009e00900010418000d1
:104d20000080500068004000000f7800f00f200065
:104d30009e007800808f50000200360000c0eb001b
:104d4000020037001e007800004078000080fa0062
:104d5000000006000800fa002007980031079800bc
:104d6000c5ff07000080fb00000f78003e009000a8
:104d70009e0f500002003100be009000010f78002d
:104d80000000eb00100798000900370059ff0700ea
:104d9000ae009000804878002e0090000000e800ef
:104da000200798001e0090000000e80010079800ff
:104db0001e0090009e0f5000f4ff39001e00780086
:104dc0000080fa00000006000800fa0020079800a2
:104dd00031079800c3ff07000080fb00000f780038
:104de0003e0090009e0f500002003100be00900077
:104df000010f78000000eb00100798000900370051
:104e00002e00900010407800ae0090008100e80075
:104e1000210798004dff07001e0090000000e800e9
:104e2000100798001e0090009e0f5000f4ff3900fc
:104e30001e0078000080fa00000006000400fa005e
:104e40000000eb00000f78008bff07002047980060
:104e5000a4ff0700304798002e4090000080fb0020
:104e60000000e00003003200e90f500003003200b0
:104e7000040037001e20a000040037001e00a00020
:104e8000020037001e10a000000000003e4090000d
:104e90000080fb000000e00003003200e90f50003a
:104ea00003003200040037001e30a000020037006b
:104eb0001e40a000000000001e0078000080fa00e4
:104ec000000006000400fa0010079800014180006d
:104ed0001e009000008f4000020037009e00780006
:104ee000698f5000e09720009e007800808f50006e
:104ef000faff3e001e007800104078000080fa00a3
:104f0000000006000000fa005bff07000080fb00c5
:104f10000000e9004f00de00004078000080fa0049
:104f2000000006000000fa006eff07000080fb0092
:104f30000000e9004f00de00004078000080fa0029
:104f4000000006000000fa00d02980000080fa006e
:104f5000000006000000fa0062ff07000004e00005
:104f6000100032002141800010418000808f5000ed
:104f7000060036002041800080007800104180004b
:104f8000008050000000e900070037002041800049
:104f900080007800104180000080500068004000d0
:104fa000010037000000eb000080fa00000006005e
:104fb0000000fa0030ff07000004e000100032009b
:104fc00001418000f0408000808f500006003600d4
:104fd0000041800080007800f04080000080500098
:104fe0000000e900070037000041800080007800e1
:104ff000f040800000805000680040000100370051
:105000000000eb000080fa00000006000000fa003b
:1050100039e5a8003b45a8000080fa000000060022
:105020000000fa0039e5a9003b45a9000080fa001c
:10503000000006000000fa00909220001040780066
:105040007f406000e14f500078003a0090922000cd
:105050001040780002c6b3008240600000c2b30076
:1050600080cf500073003a00d092200010407800aa
:105070000004e00004003200d092200010407800cc
:10508000e14f50006d003a00a092200010407800df
:105090000080fb0001022000810f50002000320040
:1050a00001022000810f500005003c000000e000dc
:1050b0000a003200e10f5000130032006000370098
:1050c00011022000810f5000430032002102200015
:1050d000810f500048003200590037000090200036
:1050e000b048880080002000d0488800c048800078
:1050f0000000a000c0488800c04880000070a000e8
:10510000c04888004e00370000902000b04888005a
:10511000c04880000070a000c048880048003700e8
:10512000f09220001080fb00019320009180fb0092
:10513000c808dd0001007000f10f200001016000cf
:10514000f191200091417800e0c1610002c171003d
:1051500082487800c800de000092200010417800ec
:10516000604161008140710001487800e08e2000bc
:10517000f10f200001016000c191200091417800f1
:10518000e0c1610002c1710082487800c800de0001
:10519000d091200010417800604161008140710091
:1051a000014878001092200090407800e0c0600034
:1051b000014878002092200090407800e0c0600014
:1051c00001487800e0912000904078000174a00030
:1051d000014878001a003700e08e2000b0488800af
