:020000040000fa
:080000000002040000000000f2
:020000040000fa
:040008008209000069
:020000040000fa
:04000c00500300009d
:020000040000fa
:040010009203000057
:020000040000fa
:040014007003000075
:020000040000fa
:04001800b20300002f
:020000040000fa
:04001c008209000055
:020000040000fa
:040020008209000051
:020000040000fa
:04002400820900004d
:020000040000fa
:040028008209000049
:020000040000fa
:04002c008209000045
:020000040000fa
:040030008209000041
:020000040000fa
:04003400820900003d
:020000040000fa
:040038008209000039
:020000040000fa
:04003c008209000035
:020000040000fa
:040040008209000031
:020000040000fa
:04004400820900002d
:020000040000fa
:040048008209000029
:020000040000fa
:04004c008209000025
:020000040000fa
:040050008209000021
:020000040000fa
:040054002e04000076
:020000040000fa
:04005800d2030000cf
:020000040000fa
:04005c008209000015
:020000040000fa
:040060008209000011
:020000040000fa
:04006400820900000d
:020000040000fa
:040068008209000009
:020000040000fa
:04006c008209000005
:020000040000fa
:040070008209000001
:020000040000fa
:0400740082090000fd
:020000040000fa
:0400780082090000f9
:020000040000fa
:04007c0082090000f5
:020000040000fa
:0400800082090000f1
:020000040000fa
:0400840082090000ed
:020000040000fa
:0400880082090000e9
:020000040000fa
:04008c0082090000e5
:020000040000fa
:0400900082090000e1
:020000040000fa
:0400940082090000dd
:020000040000fa
:0400980082090000d9
:020000040000fa
:04009c0082090000d5
:020000040000fa
:0400a0000605000051
:020000040000fa
:0400a400aa040000aa
:020000040000fa
:0400a80082090000c9
:020000040000fa
:0400ac0082090000c5
:020000040000fa
:0400b00082090000c1
:020000040000fa
:0400b40082090000bd
:020000040000fa
:0400b80082090000b9
:020000040000fa
:0400bc0082090000b5
:020000040000fa
:0400c00082090000b1
:020000040000fa
:0400c40082090000ad
:020000040000fa
:0400c80082090000a9
:020000040000fa
:0400cc0082090000a5
:020000040000fa
:0400d00082090000a1
:020000040000fa
:0400d400820900009d
:020000040000fa
:0400d8008209000099
:020000040000fa
:0400dc008209000095
:020000040000fa
:0400e0008209000091
:020000040000fa
:0400e400820900008d
:020000040000fa
:0400e8008209000089
:020000040000fa
:0400ec008209000085
:020000040000fa
:0400f00032070000d3
:020000040000fa
:0400f400820900007d
:020000040000fa
:0400f8008209000079
:020000040000fa
:0400fc008209000075
:020000040000fa
:040100008209000070
:020000040000fa
:04010400820900006c
:020000040000fa
:040108008209000068
:020000040000fa
:04010c008209000064
:020000040000fa
:040110008209000060
:020000040000fa
:04011400820900005c
:020000040000fa
:040118008209000058
:020000040000fa
:04011c008209000054
:020000040000fa
:040120008209000050
:020000040000fa
:04012400820900004c
:020000040000fa
:040128008209000048
:020000040000fa
:04012c009404000037
:020000040000fa
:040130006c0500005a
:020000040000fa
:04013400820900003c
:020000040000fa
:040138008209000038
:020000040000fa
:04013c008209000034
:020000040000fa
:040140008209000030
:020000040000fa
:04014400820900002c
:020000040000fa
:040148008209000028
:020000040000fa
:04014c008209000024
:020000040000fa
:040150008209000020
:020000040000fa
:04015400820900001c
:020000040000fa
:040158008209000018
:020000040000fa
:04015c008209000014
:020000040000fa
:040160008209000010
:020000040000fa
:04016400820900000c
:020000040000fa
:040168008209000008
:020000040000fa
:04016c004406000045
:020000040000fa
:04017000de050000a8
:020000040000fa
:040174008205000000
:020000040000fa
:0401780082090000f8
:020000040000fa
:04017c0082090000f4
:020000040000fa
:040180002403000054
:020000040000fa
:040184001c07000054
:020000040000fa
:04018800b6060000b7
:020000040000fa
:04018c005a0600000f
:020000040000fa
:0401900082090000e0
:020000040000fa
:0401940082090000dc
:020000040000fa
:0401980082090000d8
:020000040000fa
:04019c0082090000d4
:020000040000fa
:0401a00082090000d0
:020000040000fa
:0401a40082090000cc
:020000040000fa
:0401a80082090000c8
:020000040000fa
:0401ac0082090000c4
:020000040000fa
:0401b00082090000c0
:020000040000fa
:0401b40082090000bc
:020000040000fa
:0401b80082090000b8
:020000040000fa
:0401bc0082090000b4
:020000040000fa
:0401c00082090000b0
:020000040000fa
:0401c40082090000ac
:020000040000fa
:0401c80082090000a8
:020000040000fa
:0401cc0082090000a4
:020000040000fa
:0401d00082090000a0
:020000040000fa
:0401d400820900009c
:020000040000fa
:0401d8008209000098
:020000040000fa
:0401dc008209000094
:020000040000fa
:0401e0008209000090
:020000040000fa
:0401e400820900008c
:020000040000fa
:0401e8008209000088
:020000040000fa
:0401ec008209000084
:020000040000fa
:0401f0008209000080
:020000040000fa
:0401f400820900007c
:020000040000fa
:0401f8008209000078
:020000040000fa
:0401fc008209000074
:020000040000fa
:040208008209000067
:020000040000fa
:04020c00500300009b
:020000040000fa
:040210009203000055
:020000040000fa
:040214007003000073
:020000040000fa
:04021800b20300002d
:020000040000fa
:04021c008209000053
:020000040000fa
:04022000820900004f
:020000040000fa
:04022400820900004b
:020000040000fa
:040228008209000047
:020000040000fa
:04022c008209000043
:020000040000fa
:04023000820900003f
:020000040000fa
:04023400820900003b
:020000040000fa
:040238008209000037
:020000040000fa
:04023c008209000033
:020000040000fa
:04024000820900002f
:020000040000fa
:04024400820900002b
:020000040000fa
:040248008209000027
:020000040000fa
:04024c008209000023
:020000040000fa
:04025000820900001f
:020000040000fa
:040254002e04000074
:020000040000fa
:04025800d2030000cd
:020000040000fa
:04025c008209000013
:020000040000fa
:04026000820900000f
:020000040000fa
:04026400820900000b
:020000040000fa
:040268008209000007
:020000040000fa
:04026c008209000003
:020000040000fa
:0402700082090000ff
:020000040000fa
:0402740082090000fb
:020000040000fa
:0402780082090000f7
:020000040000fa
:04027c0082090000f3
:020000040000fa
:0402800082090000ef
:020000040000fa
:0402840082090000eb
:020000040000fa
:0402880082090000e7
:020000040000fa
:04028c0082090000e3
:020000040000fa
:0402900082090000df
:020000040000fa
:0402940082090000db
:020000040000fa
:0402980082090000d7
:020000040000fa
:04029c0082090000d3
:020000040000fa
:0402a000060500004f
:020000040000fa
:0402a400aa040000a8
:020000040000fa
:0402a80082090000c7
:020000040000fa
:0402ac0082090000c3
:020000040000fa
:0402b00082090000bf
:020000040000fa
:0402b40082090000bb
:020000040000fa
:0402b80082090000b7
:020000040000fa
:0402bc0082090000b3
:020000040000fa
:0402c00082090000af
:020000040000fa
:0402c40082090000ab
:020000040000fa
:0402c80082090000a7
:020000040000fa
:0402cc0082090000a3
:020000040000fa
:0402d000820900009f
:020000040000fa
:0402d400820900009b
:020000040000fa
:0402d8008209000097
:020000040000fa
:0402dc008209000093
:020000040000fa
:0402e000820900008f
:020000040000fa
:0402e400820900008b
:020000040000fa
:0402e8008209000087
:020000040000fa
:0402ec008209000083
:020000040000fa
:0402f00032070000d1
:020000040000fa
:0402f400820900007b
:020000040000fa
:0402f8008209000077
:020000040000fa
:0402fc008209000073
:020000040000fa
:04030000820900006e
:020000040000fa
:04030400820900006a
:020000040000fa
:040308008209000066
:020000040000fa
:04030c008209000062
:020000040000fa
:04031000820900005e
:020000040000fa
:04031400820900005a
:020000040000fa
:040318008209000056
:020000040000fa
:04031c008209000052
:020000040000fa
:04032000820900004e
:020000040000fa
:04032400820900004a
:020000040000fa
:040328008209000046
:020000040000fa
:04032c009404000035
:020000040000fa
:040330006c05000058
:020000040000fa
:04033400820900003a
:020000040000fa
:040338008209000036
:020000040000fa
:04033c008209000032
:020000040000fa
:04034000820900002e
:020000040000fa
:04034400820900002a
:020000040000fa
:040348008209000026
:020000040000fa
:04034c008209000022
:020000040000fa
:04035000820900001e
:020000040000fa
:04035400820900001a
:020000040000fa
:040358008209000016
:020000040000fa
:04035c008209000012
:020000040000fa
:04036000820900000e
:020000040000fa
:04036400820900000a
:020000040000fa
:040368008209000006
:020000040000fa
:04036c004406000043
:020000040000fa
:04037000de050000a6
:020000040000fa
:0403740082050000fe
:020000040000fa
:0403780082090000f6
:020000040000fa
:04037c0082090000f2
:020000040000fa
:040380002403000052
:020000040000fa
:040384001c07000052
:020000040000fa
:04038800b6060000b5
:020000040000fa
:04038c005a0600000d
:020000040000fa
:0403900082090000de
:020000040000fa
:0403940082090000da
:020000040000fa
:0403980082090000d6
:020000040000fa
:04039c0082090000d2
:020000040000fa
:0403a00082090000ce
:020000040000fa
:0403a40082090000ca
:020000040000fa
:0403a80082090000c6
:020000040000fa
:0403ac0082090000c2
:020000040000fa
:0403b00082090000be
:020000040000fa
:0403b40082090000ba
:020000040000fa
:0403b80082090000b6
:020000040000fa
:0403bc0082090000b2
:020000040000fa
:0403c00082090000ae
:020000040000fa
:0403c40082090000aa
:020000040000fa
:0403c80082090000a6
:020000040000fa
:0403cc0082090000a2
:020000040000fa
:0403d000820900009e
:020000040000fa
:0403d400820900009a
:020000040000fa
:0403d8008209000096
:020000040000fa
:0403dc008209000092
:020000040000fa
:0403e000820900008e
:020000040000fa
:0403e400820900008a
:020000040000fa
:0403e8008209000086
:020000040000fa
:0403ec008209000082
:020000040000fa
:0403f000820900007e
:020000040000fa
:0403f400820900007a
:020000040000fa
:0403f8008209000076
:020000040000fa
:0403fc008209000072
:020000040000fa
:100400000fa320000e7f22000e01880000000000d4
:10041000000020000000e000020032000001200087
:100420002002880014000700b80307000000e00065
:1004300003003a0040fc22000100200002003700c7
:100440000000200001002000810f70000100320038
:1004500014000700000020000000e000020032004d
:100460000000020000000000c22d02000000000099
:100470000040da000000fe004440a900000b20000c
:100480000000e000030032000020200090018800fe
:100490004440a800000006008a1f78008b1f7800e7
:1004a00000000600a1028800800478000000eb0034
:1004b0001f003700e284440054a0b4009905ba003c
:1004c000e284440054a0b4009906ba00e2844400d7
:1004d00054a0b4000006eb00476fde00fd07b20039
:1004e000ae018800636ce10003003a00eaff0700f8
:1004f0000000eb000e003700606ce10008003a00dd
:10050000004deb000a05e800020039003420ec0041
:100510000af0a0008b05e900f9ff3e000400370057
:100520006168e100010032000086eb000b0007006b
:1005300019c7ba001905ba000e04e00003003a001a
:100540000a00e000dbff3a0000000600fe07b200f0
:10055000ae0288008a047800f5ff37000cd0a300b3
:10056000e20f4d001c00390089027800354dba00b9
:100570000a05e800020039003420ec000af0a0006f
:100580008b05e9000f003200254dba000a05e8008e
:10059000020039003420ec000af0a0008b05e900cd
:1005a000080032000c00e0000600320015cdba0051
:1005b0000a05e800020039003420ec000af0a0002f
:1005c0008b05e9008984e80054a0b4000b00e0002a
:1005d000e2ff3a00000006009902ba00055d7800cb
:1005e0008b05e900f7ff3200c82ade00055d7800c0
:1005f0008b05e900f3ff32000c00e000f1ff320050
:1006000019ddba00eeff3700c61d0400000000002f
:10061000e41d040000000000e220040000000000cf
:100620000021040000000000f4230400000000008a
:10063000122404000000000006270400000000004f
:1006400024270400000000003600f800809fbe0050
:10065000829fbe00849fbe00869fbe003200f800cd
:100660003400f80010002000a001880000202000c5
:10067000900188000000fa00030407000080fa00df
:100680003400f9003200f9004f03be004f02be00f3
:100690004f01be004f00be003600f90000400600ca
:1006a0003600f800809fbe00829fbe00849fbe007f
:1006b000869fbe000000fa008020a9000000eb0029
:1006c000cf1607000080fa004f03be004f02be00a5
:1006d0004f01be004f00be003600f900004006008a
:1006e0003600f800809fbe00829fbe00849fbe003f
:1006f000869fbe000000fa00c61607008040a900d1
:1007000010002000be1607000080fa004f03be0054
:100710004f02be004f01be004f00be003600f90080
:10072000004006003600f800809fbe00829fbe0099
:10073000849fbe00869fbe000000fa008060a90072
:1007400020002000ae1607000080fa004f03be0014
:100750004f02be004f01be004f00be003600f90040
:10076000004006003600f800809fbe00829fbe0059
:10077000849fbe00869fbe000000fa008080a90012
:10078000300020009e1607000080fa004f03be00d4
:100790004f02be004f01be004f00be003600f90000
:1007a000004006003600f800809fbe00829fbe0019
:1007b000849fbe00869fbe000000fa009042800029
:1007c000000001007142800060428000808f500074
:1007d00002003a009580a900190037008580a90021
:1007e0001000370070428000904078008180fb004c
:1007f000212888000000e8007042880071428000d3
:1008000010982000808f500002003a00809720004e
:10081000704288007142800060428000808f5000ea
:1008200006003200112880000020200000806000b7
:100830000000e000ebff3200010037000000000084
:100840000080fa004f03be004f02be004f01be0001
:100850004f00be003600f900004006003600f800e8
:10086000809fbe00829fbe00849fbe00869fbe0008
:100870000000fa00a0428000000001008560a9008d
:100880001e003700404280003128800081407800ff
:10089000014878004142800090982000808f5000ed
:1008a00009003200404280008000e8005042800091
:1008b000808f500004003200404280000000e800b9
:1008c000404288000d00370041428000909820008f
:1008d000808f500007003a0051428000109820009d
:1008e000808f5000030032001098200040428800a2
:1008f0000200370010c0b30050e8b7001028800095
:10090000610060000000e000deff3a000080fa00b5
:100910004f03be004f02be004f01be004f00be009d
:100920003600f90000400600801f78000000fa0041
:1009300010288000620060000000e000010032002a
:100940000225a9008c20a9000080fa004f00780041
:10095000004006003600f800809fbe00829fbe0067
:10096000849fbe00869fbe000000fa000043800006
:1009700000000100e1428000d0428000808f5000e2
:1009800002003a0097e0a9001900370087e0a900ab
:1009900010003700e0428000904078008180fb002a
:1009a000d12888000000e800e0428800e142800091
:1009b00030992000808f500002003a00a09820005b
:1009c000e0428800e1428000d0428000808f5000e9
:1009d00006003200c1288000002020000080600056
:1009e0000000e000ebff32000100370000000000d3
:1009f0000080fa004f03be004f02be004f01be0050
:100a00004f00be003600f900004006003600f80036
:100a1000809fbe00829fbe00849fbe00869fbe0056
:100a20000000fa00104380000000010087c0a90008
:100a30001e003700b0428000e1288000814078002d
:100a400001487800b1428000b0992000808f5000aa
:100a500009003200b04280008000e800c0428000ff
:100a6000808f500004003200b04280000000e80097
:100a7000b04288000d003700b1428000b0992000dc
:100a8000808f500007003a00c1428000309920005a
:100a9000808f50000300320030992000b04288005f
:100aa0000200370010c0b3005ee8b700c028800025
:100ab000610060000000e000deff3a000080fa0004
:100ac0004f03be004f02be004f01be004f00be00ec
:100ad0003600f90000400600801f78000000fa0090
:100ae000c0288000620060000000e00001003200c9
:100af0001825a9008c40a9000080fa004f0078005a
:100b0000004006003600f800809fbe00829fbe00b5
:100b1000849fbe00869fbe000000fa0070438000e4
:100b2000000001005143800040438000808f50004e
:100b300002003a009e60a900190037008e60a900eb
:100b40001000370050438000904078008180fb0007
:100b5000812988000000e80050438800514380004c
:100b6000509a2000808f500002003a00c099200067
:100b7000504388005143800040438000808f5000e4
:100b800006003200712980000020200000806000f3
:100b90000000e000ebff3200010037000000000021
:100ba0000080fa004f03be004f02be004f01be009e
:100bb0004f00be003600f900004006003600f80085
:100bc000809fbe00829fbe00849fbe00869fbe00a5
:100bd0000000fa0080438000000001008e40a90060
:100be0001e0037002043800091298000814078005a
:100bf0000148780021438000d09a2000808f500067
:100c000009003200204380008000e800304380006b
:100c1000808f500004003200204380000000e80074
:100c2000204388000d00370021438000d09a200027
:100c3000808f500007003a0031438000509a200016
:100c4000808f500003003200509a2000204388001b
:100c50000200370010c0b3006ce8b70070298000b4
:100c6000610060000000e000deff3a000080fa0052
:100c70004f03be004f02be004f01be004f00be003a
:100c80003600f90000400600801f78000000fa00de
:100c900070298000620060000000e0000100320066
:100ca0002e25a9008e20a9000080fa004f007800b0
:100cb000004006003600f800809fbe00829fbe0004
:100cc000849fbe00869fbe000000fa00e0438000c3
:100cd00000000100c1438000b0438000808f5000bd
:100ce00002003a009f20a900190037008f20a900b8
:100cf00010003700c0438000904078008180fb00e6
:100d0000e12988000000e800c0438800c14380005a
:100d1000709b2000808f500002003a00e09a200073
:100d2000c0438800c1438000b0438000808f5000e2
:100d300006003200d12980000020200000806000e1
:100d40000000e000ebff320001003700000000006f
:100d50000080fa004f03be004f02be004f01be00ec
:100d60004f00be003600f900004006003600f800d3
:100d7000809fbe00829fbe00849fbe00869fbe00f3
:100d80000000fa00f0438000000001008f00a9007d
:100d90001e00370090438000f129800081407800d8
:100da0000148780091438000f09b2000808f500024
:100db00009003200904380008000e800a0438000da
:100dc000808f500004003200904380000000e80053
:100dd000904388000d00370091438000f09b200075
:100de000808f500007003a00a1438000709b2000d4
:100df000808f500003003200709b200090438800d9
:100e00000200370010c0b3007ae8b700d029800094
:100e1000610060000000e000deff3a000080fa00a0
:100e20004f03be004f02be004f01be004f00be0088
:100e30003600f90000400600801f78000000fa002c
:100e4000d0298000620060000000e0000100320054
:100e50003a25a9008ee0a9000080fa004f00780032
:100e6000004006003600f800809fbe00829fbe0052
:100e7000849fbe00869fbe000000fa008a40a90041
:100e8000a117800000082000008060000000e00042
:100e900008003200f4e2a9002628ef00604180003b
:100ea000200090008000eb00010878002c28ef0063
:100eb0000d013700304180008000eb00b2002000bf
:100ec00003002000820f5000838f5800fc003e007a
:100ed000006001000b003700390037007500370053
:100ee0009c003700f3003700c8003700d9003700f6
:100ef000f0003700db003700f10037003400370026
:100f000050003700e0812000200090006200600067
:100f10000000e000f3003a00e081200010009000a3
:100f200060418800e08120001000900010407800af
:100f300028e8b700e0812000100090001000900029
:100f400050418800e081200010009000e600400041
:100f5000e081200011009800e081200090009000c6
:100f6000609c2000808f500003003a00e081200048
:100f7000019c200011009800e0812000a00090005a
:100f80000100a10021009800e08120009000900065
:100f9000e081200010007800808f500004003a00ab
:100fa000e0812000a00090000110a0002100980026
:100fb000f002a8002000200030418800ca0037005d
:100fc000f022a8002000200030418800c600370031
:100fd000a117800000002800008060000000e000f1
:100fe00008003200e0812000604090008040e8006e
:100ff000e081200061409800400020002612070098
:10100000b9003700704180008000d100f00f20004f
:1010100000806000601788007041800061006000ff
:10102000004078000004e00003003200b00020001f
:1010300030418800ac00370030002000304188008b
:10104000a9003700a1178000000028000080600080
:101050000000e00008003200e081200060409000c5
:101060008040e800e08120006140980040002000be
:10107000091207009c003700f022a8007041800090
:101080004800de00e6006000000f20000100700054
:1010900070418800704180000000a000704188000d
:1010a00010c0b30030e8b7002000200030418800b5
:1010b0008d00370030c8bf00e14f50000a003200f9
:1010c000504180001000780070418800504180003d
:1010d0002000900090418800504180002040900006
:1010e00034e8b700010037003068ef00714180003c
:1010f000f00f2000808f5000090036007041800002
:101100004800de00e6006000000f200001007000d3
:1011100060178800a000200030418800720037006e
:10112000704180006017880070418000610060009d
:10113000004078000004e00003003200500020006e
:1011400030418800680037003000200030418800be
:1011500065003700a11780000000280000806000b3
:101160000000e00009003200e081200060409000b3
:101170008040e800e081200061409800f5e2a9008d
:1011800050002000c41107005700370034c8bf00ca
:101190008080fb008100e900cf08de0081407800fc
:1011a0000040e90034e8b7000104e000100032001c
:1011b00050418000660040005041880028c8bf00b0
:1011c0000040e90028e8b70028c8bf000004e0009c
:1011d00003003a0020002000af1107004200370052
:1011e000f022a80020002000304188003e00370097
:1011f00090418000904078008180fb00611788005a
:101200000000e8009041880037003700a1178000f7
:1012100000002800008060000000e00009003200ab
:10122000e0812000604090008040e800e0812000e4
:10123000614098004000200097110700f5e2a900e6
:1012400029003700f062a8008000200030418800ab
:10125000250037008000200030418800f062a8009f
:1012600021003700904180005117800081407800b4
:10127000014878000000e8009041880034c8bf00b1
:101280000040e90034e8b70034c8bf000004e000c3
:1012900004003200f0a2a900600020003041880064
:1012a00002003700f0a2a8006a110700f082a8002f
:1012b0000d00370020002000771107000a003700da
:1012c000e0812000604090008040e800e081200044
:1012d00061409800600020006f11070000000000ce
:1012e00001003700000000000080fa004f03be003c
:1012f0004f02be004f01be004f00be003600f90095
:10130000004006000040da000000fe00000005007a
:101310008001780002003700b15978000201e9002d
:101320000200e000fcff3a000000060080017800a7
:1013300002003700815978000201e9000200e00054
:08134000fcff3a00000006006a
:020000040000fa
:101348001201000000020000020000000008000076
:10135800d80400000a00000000010000010200009b
:101368000001000009020000430000000201000023
:1013780000c0000032090000040000000001000065
:101388000202000001000000052400000010000017
:1013980001040000240200000205000024060000e9
:1013a8000001000005240000010000000107000002
:1013b80005810000030a0000000200000904000083
:1013c80001000000020a0000000000000007000001
:1013d80005020000024000000000000007050000b0
:1013e800820200004000000000000000040300002a
:1013f80009040000340300004d00000069000000eb
:1014080063000000720000006f000000630000002d
:101418006800000069000000700000002000000063
:101428005400000065000000630000006800000030
:101438006e0000006f0000006c0000006f000000ec
:10144800670000007900000020000000490000004b
:101458006e000000630000002e0000001a03000068
:1014680050000000720000006f00000064000000df
:1014780075000000630000007400000020000000f8
:101488004e000000610000006d00000065000000d3
:10149800b6890000fa890000fe890000328a00003f
:020000040000fa
:1014a8000200fa009ec0a9000080eb0070208800ae
:1014b8000080eb00502088002a24ef004200200022
:1014c8008000eb00c042200096ff070020002000ab
:1014d800302188002824ef000644a900f0092000e4
:1014e80080208800f00920006020880002c4a8003d
:1014f8000804a80000a020004800de00c0208800e2
:101508000040eb00004f7800070037001e80fb000a
:10151800c200dd0000a02000008140006000b8008b
:101528000089be001e4fe8001e407800eb4f5000b7
:10153800f6ff36001424a8001624ef0014a4a9000e
:101548001424a90080002000502088006093200007
:101558008040eb0001487800c09320008040eb00f9
:1015680001487800d093200090407800e0c06000e7
:1015780001487800e093200090407800e0c06000c7
:101588000148780050208000680060000000e000fa
:10159800ecff3a0010c0b30013e8b70010c0b30066
:1015a80014e8b7001568ef001668ef000d68ef0043
:1015b8000040eb00004f7800150037001e80fb004c
:1015c80080004000e0922000008040008000eb0096
:1015d800010878001e80fb008000400080922000f7
:1015e800008040008000eb00010878001e80fb00ae
:1015f800119420000041eb00827078001e80fb00ef
:10160800419420000041eb00827078001e4fe800f2
:101618001e407800e24f5000e8ff360080a020000e
:1016280070498800d0002000502188007094200064
:101638001050880000a0200081c0b3000148780045
:1016480010a0200041c0b3000148780010a020007d
:1016580010407800804078000174a00010a020009d
:10166800014878000268ef001828ef001a28ef00f8
:101678001c68ef000028ef000080fa000000060058
:101688000200fa0000408000e10f50000b003a0011
:10169800a120800000042000008060000000e0001d
:1016a80006003a000080eb00502088000c04a800d7
:1016b8000c84a80020002000004088000020800042
:1016c800700060000000e000070032001020800079
:1016d800700060000000e0000300320000012000fc
:1016e80000208800bc0407004020800062006000e1
:1016f8000000e000020032008ec0a900a1003700ff
:1017080050208000610060000000e0000a00320004
:1017180060208000610060000000e00006003200e8
:101728005fff07009ec0a80040002000004088001e
:1017380010002000502088005020800070006000b9
:101748000000e000050032006020800070006000aa
:101758000000e00001003200920407000120800030
:1017680000042000008060000000e0000300320058
:101778000004200000208800ee06070050208000aa
:10178800640060000000e000140032006020800067
:10179800640060000000e000040032001200200035
:1017a8008000eb00300720003312070040002000c3
:1017b8005020880011c8bf000004e0000300320078
:1017c80011c8bf000040e90011e8b70011c8bf0008
:1017d8000004e00001003a00a30107005120800046
:1017e80000082000008060000000e00006003200d1
:1017f8006120800000082000008060000000e000f8
:10180800010032004b040700502080006200600095
:101818000000e0000c0032006020800062006000e0
:101828000000e00008003200120020008000eb00f9
:10183800f0ff2700101207000080eb0070208800de
:10184800200020005020880000408000e30f500056
:1018580002003e008ec0a9004a00370060208000c8
:10186800680060000000e000450032000040eb0026
:10187800004f78003d00370050208000680060006d
:101888000000e0003d003200902080000040780019
:101898000ee8b7000ec8bf000080fb004400de0061
:1018a800004078000fe8b700800020005020880032
:1018b8000ec8bf00684060000004e00011003a0054
:1018c8000fc8bf000081fb008080fb00409420000f
:1018d800008040009040780061c060000004a200d1
:1018e800e14060004094200000004100e1c0600039
:1018f800104178000204a10081407100014878007d
:10190800100037000fc8bf000081fb008080fb007b
:1019180010942000008040009040780061c0600072
:101928000004a200e1406000109420000000410083
:10193800e1c06000104178000204a10081407100fc
:10194800014878000fc8bf000004e00002003a0018
:101958002d040700040037000001eb00e18020009f
:1019680020072000c41107001e4fe8001e40780021
:10197800e34f5000c0ff36000100370000000000b0
:101988008ec0a9000080fa00000006000400fa00da
:1019980020479800314798003e4090000080fb00a7
:1019a800680060000000e000030032008040eb00a7
:1019b8002e4090009b0107003e4090000080fb00f5
:1019c800640060000000e0000300320011c0b300b2
:1019d8002e40900093010700a14220002e40900065
:1019e8000080fb0000004000008f40001e007800cf
:1019f800be409000014878000080fa000000060010
:101a08000800fa00204798003147980022079800fc
:101a1800634798003e4090000004e0000700320051
:101a28002e4090000080fb0080004000e0922000e3
:101a380000804000100f7800060037002e4090000c
:101a48000080fb0080004000809220000080400061
:101a5800100f78001e0078000000e00002003a0035
:101a68000000eb0037003700ae0090001e00780041
:101a7800110098001e007800ee40900001487800a0
:101a88001e0078001040900002c4b300824060003d
:101a98001e007800114098001e0078001040900049
:101aa800804078000134a0001e00780011409800a2
:101ab8001e00780010409000804078000174a0005b
:101ac8001e007800114098003e4090000004e0009d
:101ad8000e0032002e4090000080fb00ae409000c7
:101ae8008180fb0001814000e192200081004100db
:101af800910078000120a20000014000e09220003f
:101b080000004100010878000d0037002e409000c9
:101b18000080fb00ae4090008180fb000181400006
:101b28008192200081004100910078000120a200ec
:101b38000001400080922000000041000108780068
:101b48001e0078000080fa00000006000400fa0079
:101b580020479800314798002e4090000004e0008c
:101b680017003a003040800081c0b3000148780077
:101b780030408000719420001100980030408000af
:101b8800c1c0b3001140980030408000314080004f
:101b9800914090000174a0001140980070498000a5
:101ba80041c0b3001140980070498000714980001d
:101bb800914090000174a000114098002e00370059
:101bc8002e4090000080fb0000004000800078005c
:101bd8003e4090000080fb00008040004300dd0094
:101be8008000780000a02000008f40001e007800d0
:101bf80010409000804078000124a0001e0078006a
:101c0800114098001e007800104090008040780035
:101c18000174a0001e007800114098002e4090002a
:101c28000080fb0000004000800078003e409000eb
:101c38000080fb00008040004300dd00e40040001d
:101c480000a02000008f40001e0078001040900087
:101c5800804078000124a0001e0078001140980000
:101c68001e00780010409000804078000174a000a9
:101c78001e007800114098000080fa00000006005d
:101c88000200fa00004f7800a12080000002200026
:101c9800008060000000e000510032001e80fb0060
:101ca80080004000e0922000008040001002780090
:101cb8001e80fb0080004000e09220000080400071
:101cc800100078001001be00000420000100200070
:101cd8008202780003017800800178000100780012
:101ce80083826200000061008000eb00c000dd001c
:101cf800000020000001be006128b800000171004a
:101d080081817100028abe001e80fb0080004000b5
:101d1800e092200000804000100278001e80fb0046
:101d280080004000e0922000008040001000780011
:101d38001001be000004200001002000000069001e
:101d480081806900008abe001e80fb009e80fb0027
:101d580001814000e192200081004100910078005b
:101d68000120a20000014000e09220000000410094
:101d7800010878001e80fb0080004000e0922000ef
:101d880000804000900078001e80fb0000014000a9
:101d9800e092200000004100100078001040900000
:101da8000044b200904098001e80fb008000400074
:101db800e092200000804000900078001e80fb0028
:101dc80000014000e092200000004100100078006f
:101dd8001041900000c4b300004069009040980092
:101de8000080fa00000006000000fa001424ef004a
:101df8000c24ef000028ef000080fa000000060025
:101e08000000fa00004080000000e00014003a00e2
:101e18001424ef000c24ef0020002000302188005b
:101e28002824ef000644a900f0092000802088003b
:101e3800f00920006020880002c4a8009ec0a80005
:101e4800010037001404a800a02080006100600091
:101e58000000e000fbff3200100020000040880076
:101e68000080fa00000006000000fa0013c8bf0056
:101e78000004a2000004e0003400320010c0b300e7
:101e880013e8b70014c8bf000004a2000004e00073
:101e98002e00320010c0b30014e8b70009c8bf0014
:101ea800e24f50000c003a00704980008040eb007f
:101eb800014878007049800081c4b300114098003f
:101ec8007049800071498000914090000174a00021
:101ed800114098001d00370009c8bf00e14f5000ad
:101ee8001a003a001068ef002040800081c0b3005b
:101ef800014878002040800071942000110098006b
:101f08002040800041c0b30011409800204080006c
:101f180021408000914090000174a0001140980079
:101f280010c0b30010e8b7003040800081c0b30093
:101f3800014878003040800071942000110098001a
:101f48003040800001c8b300114098000080fa00ba
:101f5800000006000000fa001568ef001668ef00a0
:101f680009c8bf00e24f50000f003a00304080001f
:101f780081c0b3000148780030408000f19420000f
:101f8800110098003040800081c4b30011409800cf
:101f98003040800031408000914090000174a000e2
:101fa800114098001d003700d09420001080fb00dd
:101fb800e19420009180fb00c808dd00010070005a
:101fc80080007800c0498000808f500007003100f1
:101fd800d09420001080fb00e19420009180fb0049
:101fe800c808dd0001007000c0498800960007009d
:101ff80070498000f1942000110098007049800019
:1020080081c4b30011409800704980007149800074
:10201800914090000174a000114098000080fa00df
:10202800000006000400fa00204798003147980095
:1020380000a02000000f78002e4090000080fb00d8
:1020480000004000800078003e4090000080fb00c7
:10205800008040004300dd001e0f40001e00780095
:102068009000780001f0a100010878003e4090003f
:102078000004e00007003a002e4090000080fb00ba
:102088008000400080922000008040001e087800f8
:10209800060037002e4090000080fb0080004000c2
:1020a800e0922000008040001e0878001e007800a2
:1020b8009000780001e0a100010878009e007800f7
:1020c800648040009000780001e0a00001087800da
:1020d8000080fa00000006000000fa0014a4a9001d
:1020e800b149800000082000008060000000e00086
:1020f80027003a00c09320009040780000c8b30041
:1021080000c060000004e0000a00320020c0b300f4
:1021180009e8b70016c8bf000004a2000004e000e8
:10212800010032008bff07001468ef001368ef000e
:10213800430037003040800081c0b3000148780078
:1021480030408000719420001100980030408000d9
:10215800c1c0b30011409800304080003140800079
:10216800914090000174a0001140980070498000cf
:1021780041c0b30011409800704980007149800047
:10218800914090000174a000114098002c00370085
:10219800709420009040780000c8b30000c0600030
:1021a8000004e0000f00320010c0b30009e8b700d7
:1021b80015c8bf000004a2000004e00001003200be
:1021c80064ff07001468ef001368ef0012c8bf002f
:1021d8000004a2000004e0001900320022ff0700fa
:1021e8001700370020c0b30009e8b700304080006e
:1021f80081c0b3000148780030408000719420000d
:10220800110098003040800041c0b3001140980090
:102218003040800031408000914090000174a0005f
:10222800114098001468ef001368ef0012c8bf004f
:102238000004a2000004e000010032000aff0700c9
:102248000080fa00000006000200fa0080c0b30017
:10225800004f7800c0498000e70f50000d003e0095
:10226800c0498000004f780008c8bf000004e000a3
:1022780003003a0010c0b30008e8b70005003700b3
:1022880008c8bf00e14f500002003a0020c0b30068
:1022980008e8b700c14980001e80fb00008050009c
:1022a800c0498800704980001e487800f0942000da
:1022b80050408800b0498000610060000000e000e4
:1022c80017003a000900370051408000a0498000fb
:1022d80010417800824878008100e8005140880069
:1022e8000000e800a04988001e4fe9001e40780061
:1022f8000004e000f4ff3a000c0037005140800071
:10230800a049800010417800824878008100e800e8
:10231800514088000000e800a04988001e4fe900ed
:102328001e4078000004e000f4ff3a000080fa0044
:10233800000006000200fa0020408000104f7800dc
:102348009e80fb00d09320001080fb00e2932000c9
:102358001281fb004811dd0002007000808f5000e0
:1023680007003600d09320001080fb00e193200086
:102378009180fb00c808dd0001007000004f780064
:10238800d09320001080fb00e19320009180fb0097
:10239800c808dd0001007000800078001e80fb0086
:1023a80000805000f10f200001016000d19320004f
:1023b80091417800e0c1610002c171008248780053
:1023c800c800de00e0932000104178006041610001
:1023d80081407100014878000040eb0010479800e8
:1023e8001c003700a09320001080fb00b193200050
:1023f8009180fb00c808dd00010070009e4090003d
:102408008180fb00f2942000e2c078000148780047
:102418000000e800f10f200001016000a1932000f6
:1024280091417800e0c1610002c1710082487800e2
:10243800c800de00b09320001041780060416100c0
:1024480081407100014878001e4090000040e8007b
:10245800104798001e4090009e4f5000e1ff390041
:10246800d09320001080fb00e19320009180fb00b6
:10247800c808dd00010070000000e0001e00320006
:102488003040800081c0b3000148780030408000af
:10249800f1942000110098002040800090007800fe
:1024a80000002400008060000000e00009003a00fd
:1024b8003040800081c4b300114098003040800053
:1024c80031408000914090000174a00011409800b4
:1024d8002f0037003040800081c0b30011409800c1
:1024e8003040800031408000914090000174a0008d
:1024f80011409800260037003040800081c0b300aa
:102508000148780030408000719420001100980044
:102518003040800041c0b300114098003040800036
:1025280031408000914090000174a0001140980053
:10253800f09320001080fb00019420009180fb00a4
:10254800c808dd00010070000000e000070032004c
:10255800f09320001080fb00019420009180fb0084
:10256800c808dd000100700000000100c0932000d1
:10257800904078000174a1000148780012c8bf009b
:102588000004a2000004e0000100320036fe07004b
:102598000080fa00000006000200fa00b04980003e
:1025a8000070a000b0498800420020008000eb00c5
:1025b800c04220005bfb0700020320008000eb0004
:1025c80000a0200057fb07001424a8000040eb00df
:1025d800004f7800090037001e80fb00119420008e
:1025e8000041eb00827078001e80fb0041942000bf
:1025f8000041eb00827078001e4fe8001e40780012
:10260800e24f5000f4ff3600220020008000eb006b
:102618006092200043fb07001424a90080a020003a
:102628007049880000a020002040880020408000d9
:1026380030408800909420001040780002e8b700ed
:1026480002c8bf000004e00003003a0000012000b7
:10265800004088000600370012002000218020007a
:1026680010002000840e07000002200000408800af
:102678000080fa00000006000000fa0070942000b4
:102688009040780000c8b30080cf500047003a005f
:102698006093200001ccb30001487800a09420008a
:1026a800104078000080fb00e20f50000900320063
:1026b800e30f500023003200e10f500037003a00ca
:1026c800409a2800a049880020012000c0498800bd
:1026d8003600370090942000104078000004e00095
:1026e80014003a0090942000104078000080fb000d
:1026f8000000400080007800c0a42800008040004e
:1027080010007800a0498800a04980000080e800f7
:10271800904078008093200001487800a04980000c
:1027280063004000904078009093200001487800b2
:102738001e003700609320008040eb0001487800bd
:102748001a0037009094200010407800e24f5000a3
:102758000e003e0090942000104078000080fb009e
:102768000000400080007800e0a4280000804000bd
:1027780010007800a0498800a04980001040780027
:102788000080fb00c04988000800370060932000e3
:102798008040eb0001487800040037006093200077
:1027a8008040eb0001487800000000000080fa003b
:1027b800000006000200fa00f09420008040eb00c0
:1027c80001487800009520008040eb00014878001f
:1027d80070942000904078007fc060000080fb006b
:1027e800e10f500011003200e20f500013003200d8
:1027f8000000e00040003a00b04980000070a000ee
:10280800b04988000cc8bf000004e0003500320061
:10281800f094200010407800804078000114a00057
:10282800f09420000148780033003700b049800058
:102838000070a000b04988002f003700b049800020
:102848000070a000b0498800b09420009040780043
:1028580000c8b30000c060000004e00009003a00ae
:10286800b0942000904078006fc060000080fb00aa
:10287800800040008092200000804000100f780007
:1028880008003700b0942000904078006fc06000c6
:102898000080fb0080004000e092200000804000a3
:1028a800100f78001e0078009000780000002800c3
:1028b800008060000000e0000c0032001e0078007c
:1028c8009000780000402000008060000000e000d8
:1028d80008003200f094200011c0b30001487800cd
:1028e800050037000000000003003700000000006a
:1028f8000100370000000000b149800000082000f6
:10290800008060000000e00008003200f094200021
:10291800a0498800b04980000000a000b0498800a4
:102928008093200021c0b300014878000080fa009d
:10293800000006000000fa005021800062006000dc
:102948000000e0001300320020408000904090001a
:1029580000c8b30080cf50000d003a0070498000d5
:102968009040900040c8b30080cf500008003a0063
:1029780020408000c1c0b300114098002040800072
:1029880021408000914090000174a00011409800ff
:102998002a24a90000082000502088000080fa009e
:1029a800000006000000fa000284a80000012000d0
:1029b8005020880010c0b3000de8b7001c68ef0075
:1029c8000001eb008000eb0050072000aa0d070073
:1029d8000080fa00000006000000fa000d68ef0011
:1029e8000001eb008000eb0040072000a20d07006b
:1029f8000284a90000012000002088001c68ef0064
:102a08000080fa00000006000000fa00d0c2b300ff
:102a180011e8b7000ec8bf000080fb000020a1002d
:102a28000000e0001f003a000ec8bf000080fb0055
:102a38004200de00004078000080fb00c200dd009c
:102a480000a0200000804000204088002040800036
:102a580030408800304080000020a20030408800cc
:102a6800204080009000780000c023008080600033
:102a780000402300808f500008003a00204080006a
:102a880010009000820020008000780070942000e0
:102a98001dfa07000b000700080037003d0007007b
:102aa800060037000ec8bf000080fb000020a10010
:102ab800e80f500001003a00530007000080fa00b8
:102ac800000006000000fa000868ef001268ef0036
:102ad8001568ef001668ef001068ef000968ef004e
:102ae8007049800071498000914090000174a100f4
:102af80011409800704980000020a20070498800a9
:102b08007049800071498000914090000174a100d3
:102b180011409800704980000020a2007049880088
:102b28003040800031408000914090000174a10045
:102b380011409800609320008040eb000148780025
:102b48000000eb00c0498800c09320008040eb00e3
:102b580001487800d093200090407800e0c06000e1
:102b680001487800e093200090407800e0c06000c1
:102b780001487800820007000001eb008000eb00ac
:102b8800300020003c0d070053fd07000080fa00cc
:102b9800000006000000fa0009c8bf00e24f50001c
:102ba80002003a00e3fd0700150037000968ef004e
:102bb80010c8bf000004a2000004e0000f003200ab
:102bc8003040800081c0b300014878003040800068
:102bd800719420001100980030408000c1c0b300fb
:102be80011409800304080003140800091409000b2
:102bf8000174a00011409800010037001068ef0030
:102c08000080fa00000006000200fa007049800007
:102c1800100078004e00de0061406000004f780030
:102c2800704980000020a2007049880000408000a0
:102c3800e80f50000e003a009094200010407800f1
:102c48008080fb00f007200000806000b020880032
:102c5800b02080000000e0000300320000012000e6
:102c68000040880002003700400020000040880033
:102c780009c8bf00e14f500025003a0070498000a4
:102c8800f1942000110098006ffd070008c8bf00ec
:102c9800e24f500009003a007049800041c0b3007b
:102ca800114098007049800071498000914090005f
:102cb8000174a000114098002f0037001e407800d2
:102cc8000004e00009003a007049800081c4b300a4
:102cd800114098007049800071498000914090002f
:102ce8000174a0001140980023003700704980004b
:102cf80081c0b3001140980070498000714980007c
:102d0800914090000174a000114098001a0037000b
:102d1800c09320009040780000c8b30000c0600055
:102d28000004e00013003200f09320001080fb0044
:102d3800019420009180fb00c808dd0001007000ac
:102d48000000e00007003200f09320001080fb0034
:102d5800019420009180fb00c808dd00010070008c
:102d680000000100c0932000904078000174a10089
:102d7800014878000968ef000080fa0000000600aa
:102d88000000fa0070942000104078000046b2005d
:102d98000004e00050003a008094200010407800c1
:102da8000080fb00cf80de00b2002000030020007e
:102db800820f5000838f580049003e0000600100d8
:102dc8002100370022003700470037002000370075
:102dd80045003700060037000b0037003900370080
:102de8000d0037000a0037001b0037002a003700a3
:102df800b04980000070a000b04988008000200021
:102e080000408800390037001bfe070037003700f4
:102e1800e1fd07003500370020802000a049880028
:102e2800b04980000000a000b049880080932000cd
:102e380011c0b30001487800b04980000070a000bc
:102e4800b0498800290037005afe070027003700dc
:102e58002800070025003700b094200010407800b3
:102e68008080fb006092200000804000a04988001c
:102e7800b04980000000a000b0498800809320007d
:102e880011c0b30001487800b04980000070a0006c
:102e9800b049880015003700b04980000070a000d4
:102ea800b0498800b0942000104078000080fb00f2
:102eb800919420001141780061922000827078007e
:102ec8000a0037000001eb008000eb002000200022
:102ed800690c0700050037000000000003003700f8
:102ee8000000000001003700000000000080fa0028
:102ef800000006000600fa009094200010407800b8
:102f0800e14f500010003a00709420001040780003
:102f18007f4060000004e0000b003a00b0498000e8
:102f28000070a000b049880080942000104078000c
:102f3800e34f500003003a0010c0b3000ce8b7009c
:102f4800010037000c68ef009094200010407800d2
:102f58000004e000f5003a0070942000104078006a
:102f68007f406000e24f5000f0003a00b09420002b
:102f7800104078006f4060000004e000eb00320071
:102f8800b0942000904078006fc060000080fb0083
:102f9800e20f5000e5003c000140800000022000e4
:102fa800808f5000e1003a00b04980000070a00016
:102fb800b0498800b09420009040780000c8b30061
:102fc80000c060000004e00010003a00b094200047
:102fd800104178006f4061000080fb0080004000d5
:102fe8008092200000804000100f7800b0942000ec
:102ff800904078006fc060000080fb004194200082
:1030080061407800404798000f003700b0942000d6
:10301800104178006f4061000080fb008000400094
:10302800e092200000804000100f7800b09420004b
:10303800904078006fc060000080fb001194200071
:1030480061407800404798004e4090006140600021
:103058000004e00004003a001e0078000020a100ef
:10306800000f7800030037001e0078000020a00041
:10307800000f7800b09420009040780000c8b3009a
:1030880000c060000004e0000a003a00b09420008c
:10309800104178006f4061000080fb009e007800be
:1030a80000014000809220000000410001087800e3
:1030b80009003700b0942000904078006fc060008d
:1030c8000080fb009e00780000014000e092200094
:1030d800000041000108780080942000104078002a
:1030e800e34f50002c003a001e0078009000780052
:1030f80000002800008060000000e0001900320095
:10310800b09420009040780000c8b30000c0600070
:103118000004e0000a003a00b09420001041780052
:103128006f4061008080fb004094200000804000d8
:10313800904078000114a000014878000900370089
:10314800b0942000904078006fc060008080fb0041
:103158001094200000804000904078000114a000e6
:10316800014878001e0078001040900080407800e8
:103178000124a0001e007800114098001e0078006d
:1031880010409000804078000174a0001e00780074
:1031980011409800650037001e0078000020a2004a
:1031a800000f78001e0078009000780000002800ca
:1031b800008060000000e000110032001e0078006e
:1031c80010409000804078000174a1001e00780033
:1031d800114098001e007800104090008040780050
:1031e8000164a0001e007800114098002200200011
:1031f8009e007800500020009f0b07000600370053
:103208001e00780010409000804078000164a00003
:103218001e007800114098001e0078000020a200cf
:10322800000f78004e409000624060000004e0000b
:1032380006003a001e007800900078000000280080
:10324800008060000000e00024003200b0942000fc
:103258009040780000c8b30000c060000004e0009f
:103268000a003a00b0942000104178006f406100d5
:103278008080fb004094200000804000904078004f
:103288000114a1000148780009003700b09420001b
:10329800904078006fc060008080fb001094200090
:1032a80000804000904078000114a1000148780097
:1032b8001e00780010409000b2c3b3008240600046
:1032c8001e00780011409800220020009e0078001f
:1032d80050002000680b0700060037001e00780029
:1032e80010409000b2c3b300824060001e00780016
:1032f80011409800a1422000b094200010417800ad
:103308006f4061000080fb0000004000008040002a
:10331800100798001e009000104078008040780048
:103328000114a1001e009000014878000080fa00f6
:10333800000006000000fa00c0408000d140800074
:1033480061004000e0804800c0408800d14088000b
:103358000dc8bf000004a2000004e000080032000d
:103368001cc8bf000040e8001ce8b7001cc8bf002c
:103378000004e00002003a0000c0eb001ce8b700bf
:103388000080fa00000006000400fa00c240800035
:10339800d3408000028fbe00c0408000d140800032
:1033a8001e01be00800f5100818f5900f7ff3a00bf
:1033b8001e00be000080fa00000006000000fa00af
:1033c80070942000104078007f406000e14f50006a
:1033d80078003a00709420001040780002c6b300cc
:1033e8008240600000c2b30080cf500073003a00f2
:1033f800b0942000104078000004e000040032007f
:10340800b094200010407800e14f50006d003a0061
:1034180080942000104078000080fb00010220000a
:10342800810f50002000320001022000810f50005f
:1034380005003c000000e0000a003200e10f5000e7
:10344800130032006000370011022000810f500085
:103458004300320021022000810f50004800320052
:1034680059003700e0912000a04988008000200022
:10347800c0498800b04980000000a000b049880019
:10348800b04980000070a000b04988004e003700a5
:10349800e0912000a0498800b04980000070a00099
:1034a800b049880048003700d09420001080fb0005
:1034b800e19420009180fb00c808dd000100700045
:1034c800f10f200001016000d193200091417800a4
:1034d800e0c1610002c1710082487800c800de00c6
:1034e800e093200010417800604161008140710044
:1034f80001487800c0902000f10f20000101600011
:10350800a193200091417800e0c1610002c17100df
:1035180082487800c800de00b0932000104178008f
:10352800604161008140710001487800f0932000fb
:1035380090407800e0c060000148780000942000c6
:1035480090407800e0c0600001487800c0932000f7
:10355800904078000174a000014878001a003700f4
:10356800c0902000a049880070002000c049880051
:103578006093200011ccb300014878001200370096
:10358800909420001080fb00a19420009180fb0003
:10359800c808dd00010070000040780042e8b7006c
:1035a800b04980000070a000b04988000000000009
:1035b800050037000000000003003700000000008d
:1035c80001003700000000000080fa00000006003b
:1035d8000000fa0000b024000100200060488800c4
:1035e80071488800009120008040eb000148780075
:1035f800109120008040eb000148780020912000c5
:1036080081c0b300014878003668ef0051c1b300ab
:1036180010c0b300ddf80700d1c1b30020c0b3006b
:10362800daf8070003c4b300c28c20008040eb0026
:1036380020c0b300f2f80700f04188004028ef00ee
:103648003768ef000080fa00000006000600fa0064
:10365800000f780011079800220798001e007800d4
:10366800e50f500012003a00f04180009e009000e3
:10367800808f500006003a0003c4b300c28c2000bb
:103688008040eb0020c0b300ddf80700f04188005f
:10369800004280009e009000808f500002003a0097
:1036a8003768ef003c68ef0010c0b3000100370036
:1036b8000040eb000080fa00000006000400fa0059
:1036c800000f7800214798003668ef00f04180002d
:1036d8000000e00006003200f04180009000780011
:1036e80000002800008060000000e00021003a008f
:1036f800f0418000904078002e40900080cf50002c
:1037080003003100f0418000904078002147980084
:103718003668ef000c00370036c8bf000080fb0099
:103728001e00400061832000914078008180fb00ea
:10373800c28c2000e2c078000148780036c8bf007b
:103748000040e80036e8b700618320009140780027
:103758002e40900080cf5000efff390003c4b30023
:10376800c28c20008040eb0020c0b300a4f8070002
:10377800f041880036c8bf000080fa00000006004b
:103788000400fa00000f7800214798009ec0a900a5
:1037980037c8bf000004e00009003a009e00780026
:1037a800c1418800ae409000c283200001497800e2
:1037b80010c0b3003de8b70010c0b30037e8b70049
:1037c8009ec0a8000080fa00000006000600fa006b
:1037d800200798009ec0a90037c8bf000004e00079
:1037e800020032009ec0a8001f0037000040eb0016
:1037f800004f7800ae009000110798001e4fe800b7
:103808001e407800e14f40000c0032001e0090007e
:10381800104078000080fb000000ea004f00de0046
:10382800004078009e0090008100e8001107980091
:103838000004e000f1ff3a0001003700000000003a
:103848002e009000c04188009e407800c28320006e
:103858000149780010c0b3003de8b70010c0b300bc
:1038680037e8b7009ec0a8000080fa0000000600f4
:103878000600fa00200798009ec0a90037c8bf00bc
:103888000004e000020032009ec0a8001e003700bd
:103898000040eb00004f7800ae0090001107980040
:1038a8001e4fe8001e407800e14f40000c00320037
:1038b8001e009000104078000080fb000000ea0025
:1038c8004f00de00004078009e0090008100e80074
:1038d800110798000004e000f1ff3a0001003700ea
:1038e800000000002e009000c04188009e40780033
:1038f800c2832000014978003d68ef0010c0b30082
:1039080037e8b7009ec0a8000080fa000000060053
:103918000200fa009ec0a900004280000000e000fa
:103928000800320000428000900078000000280063
:10393800008060000000e000020032009ec0a80085
:103948006200370037c8bf00e34f500001003a005b
:103958003768ef0037c8bf000004e00002003a00f3
:103968009ec0a8005900370037c8bf00e24f50007a
:1039780009003a008041eb000001eb0011c0b300e0
:1039880020c0b3001ef807000042880030c0b30012
:1039980037e8b7004c00370037c8bf00e14f500088
:1039a80049003a00c18320009140780000c4b30068
:1039b80080cf50000300360000c4b300004f7800e9
:1039c80003003700c183200091407800014f780040
:1039d8003cc8bf001e4050003ce8b700c08820002b
:1039e800d04188009e407800114798003dc8bf002c
:1039f8000004e0001f003a000d003700d0418000ad
:103a0800c14180009140780001487800d041800091
:103a18000000e800d0418800c04180000000e800b4
:103a2800c04188001e4090000040e90010479800ff
:103a38001e4090000004e000f0ff3a00100037003c
:103a4800d0418000c1418000914078000148780051
:103a5800d04180000000e800d0418800c0418000cb
:103a68000000e800c04188001e4090000040e900c6
:103a7800104798001e4090000004e000f0ff3a0054
:103a88003cc8bf000004e00009003a0000c4b300cd
:103a98009e40780080cf500003003a0020c0b30059
:103aa80037e8b7000200370030c0b30037e8b70086
:103ab8009e417800c288200011c0b30020c0b30026
:103ac800cff70700004288009ec0a8000080fa00d7
:103ad800000006000000fa009580a9009560a90082
:103ae80080002000002888000225ef0090012000b7
:103af800402888000a25ef000c25ef000e25ef006e
:103b08001025ef001225ef001425ef008097200004
:103b1800704288008097200060428800109820003a
:103b28005042880010982000404288005068ef00fa
:103b380060dc21000700070040de210014000700b8
:103b48009560a80001e5a8000345a8000080fa00d8
:103b5800000006000200fa00000f78001e0078003e
:103b68000000e00003003a0060dc21009042880079
:103b7800020037009e007800914288000080fa0019
:103b8800000006000000fa000080fa0000000600ad
:103b98000200fa00000f78001e0078000000e00024
:103ba80003003a0040de2100a042880002003700ee
:103bb8009e007800a14288000080fa0000000600fc
:103bc8000000fa000080fa00000006000200fa0077
:103bd8000040eb00004f78000000000051428000d8
:103be80040428000808f5000fcff3200504280002d
:103bf800104f7800504280000000e80050428800d2
:103c080051428000a0982000808f500002003a00a6
:103c180010982000504288001e4078000080fa006a
:103c2800000006000200fa00004f780000000000c3
:103c38001c0007000004a2000004e000fcff3a009a
:103c4800604280001e487800604280000000e80062
:103c5800604288006142800010982000808f5000e8
:103c680002003a0080972000604288009580a800f2
:103c78000080fa00000006000000fa0051428000af
:103c8800404280000080680000f0a7000000ea00c1
:103c98000000ea004f00de00004078000080fa00d3
:103ca800000006000400fa00714280001107980025
:103cb800614280001e009000808f50000600310095
:103cc8009e00900060428000008050000000e900e3
:103cd800000f7800050037009e00900060428000c9
:103ce8000080500068004000000f78001e00780037
:103cf80000f0a7000000ea000000ea004f00de0024
:103d0800004078000080fa00000006000000fa0079
:103d18006142800070428000808f500009003a00a4
:103d280011288000001020000080600000f0a7002b
:103d38000000ea000000ea004f00de0000407800c2
:103d4800010037000040eb000080fa000000060088
:103d58000400fa0041428000110798005042800098
:103d68009e009000808f5000060031009e00900059
:103d7800504280000080500069004000000f780029
:103d8800040037009e0090005042800000805000e0
:103d9800000f7800f00f20009e007800808f500000
:103da8000200360000c0eb00020037001e00780059
:103db800004078000080fa00000006000400fa00c5
:103dc8007142800011079800614280001e00900037
:103dd800808f5000060031009e00900060428000f5
:103de800008050000000e900000f7800050037004f
:103df8009e009000604280000080500068004000f3
:103e0800000f7800f00f20009e007800808f50008f
:103e18000200360000c0eb00020037001e007800e8
:103e2800004078000080fa00000006000800fa0050
:103e38002007980031079800c5ff07000080fb00a5
:103e4800000f78003e0090009e0f500002003100e5
:103e5800be009000010f78000000eb0010079800ea
:103e68000900370059ff0700ae009000804878002d
:103e78002e0090000000e800200798001e00900027
:103e88000000e800100798001e0090009e0f5000e8
:103e9800f4ff39001e0078000080fa0000000600d8
:103ea8000800fa002007980031079800c3ff0700b0
:103eb8000080fb00000f78003e0090009e0f50002d
:103ec80002003100be009000010f78000000eb00f6
:103ed80010079800090037002e0090001040780065
:103ee800ae0090008100e800210798004dff070010
:103ef8001e0090000000e800100798001e009000c7
:103f08009e0f5000f4ff39001e0078000080fa0070
:103f1800000006000400fa000000eb00000f780023
:103f28008bff070020479800a4ff07003047980040
:103f38002e4090000080fb000000e00003003200eb
:103f4800e90f500003003200040037001e20a000d3
:103f5800040037001e00a000020037001e10a00059
:103f6800000000003e4090000080fb000000e000e0
:103f780003003200e90f500003003200040037004c
:103f88001e30a000020037001e40a0000000000004
:103f98001e0078000080fa00000006000400fa0005
:103fa80010079800514280001e009000008f4000ca
:103fb800020037009e007800698f5000a09820000a
:103fc8009e007800808f5000faff3e001e007800a7
:103fd800104078000080fa00000006000000fa0097
:103fe8005bff07000080fb000000e9004f00de00d7
:103ff800004078000080fa00000006000000fa0087
:104008006eff07000080fb000000e9004f00de00a3
:10401800004078000080fa00000006000000fa0066
:10402800102880000080fa00000006000000fa0056
:1040380062ff07000004e0001000320071428000b7
:1040480060428000808f5000060036007042800079
:104058008000780060428000008050000000e90085
:1040680007003700704280008000780060428000be
:104078000080500068004000010037000000eb009d
:104088000080fa00000006000000fa0030ff070078
:104098000004e000100032005142800040428000dd
:1040a800808f500006003600504280008000780063
:1040b80040428000008050000000e90007003700ff
:1040c800504280008000780040428000008050000c
:1040d80068004000010037000000eb000080fa0093
:1040e800000006000000fa0001e5a8000345a8004a
:1040f8000080fa00000006000000fa0001e5a900af
:104108000345a9000080fa00000006000000fa003c
:1041180097e0a90097c0a90080002000b028880077
:104128001825ef0090012000f02888002025ef00d6
:104138002225ef002425ef002625ef002825ef0093
:104148002a25ef00a0982000e0428800a0982000cf
:10415800d042880030992000c04288003099200061
:10416800b04288005e68ef00200e220007000700ba
:10417800001022001400070097c0a80017e5a80047
:104188001945a8000080fa00000006000200fa00a5
:10419800000f78001e0078000000e00003003a00dd
:1041a800200e220000438800020037009e0078009d
:1041b800014388000080fa00000006000000fa00b1
:1041c8000080fa00000006000200fa00000f7800e4
:1041d8001e0078000000e00003003a0000102200f2
:1041e80010438800020037009e00780011438800c1
:1041f8000080fa00000006000000fa000080fa00c3
:10420800000006000200fa000040eb00004f7800b2
:1042180000000000c1428000b0428000808f500042
:10422800fcff3200c0428000104f7800c04280007e
:104238000000e800c0428800c1428000c099200008
:10424800808f500002003a0030992000c042880058
:104258001e4078000080fa00000006000200fa0004
:10426800004f7800000000001c0007000004a200b6
:104278000004e000fcff3a00d04280001e487800ad
:10428800d04280000000e800d0428800d14280007f
:1042980030992000808f500002003a00a09820003a
:1042a800d042880097e0a8000080fa0000000600cd
:1042b8000000fa00c1428000b0428000008068001f
:1042c80000f0a7000000ea000000ea004f00de004e
:1042d800004078000080fa00000006000400fa00a0
:1042e800e142800011079800d14280001e00900032
:1042f800808f5000060031009e009000d042800060
:10430800008050000000e900000f78000500370029
:104318009e009000d042800000805000680040005d
:10432800000f78001e00780000f0a7000000ea00e7
:104338000000ea004f00de00004078000080fa002c
:10434800000006000000fa00d1428000e042800030
:10435800808f500009003a00c1288000001020001a
:104368000080600000f0a7000000ea000000ea00fa
:104378004f00de0000407800010037000040eb00ed
:104388000080fa00000006000400fa00b142800034
:1043980011079800c04280009e009000808f500056
:1043a800060031009e009000c0428000008050004e
:1043b80069004000000f7800040037009e0090005c
:1043c800c042800000805000000f7800f00f2000ed
:1043d8009e007800808f50000200360000c0eb007d
:1043e800020037001e007800004078000080fa00c4
:1043f800000006000400fa00e1428000110798005e
:10440800d14280001e009000808f500006003100cd
:104418009e009000d0428000008050000000e9001b
:10442800000f7800050037009e009000d042800001
:104438000080500068004000000f7800f00f200056
:104448009e007800808f50000200360000c0eb000c
:10445800020037001e007800004078000080fa0053
:10446800000006000800fa002007980031079800ad
:10447800c5ff07000080fb00000f78003e00900099
:104488009e0f500002003100be009000010f78001e
:104498000000eb00100798000900370059ff0700db
:1044a800ae009000804878002e0090000000e800e0
:1044b800200798001e0090000000e80010079800f0
:1044c8001e0090009e0f5000f4ff39001e00780077
:1044d8000080fa00000006000800fa002007980093
:1044e80031079800c3ff07000080fb00000f780029
:1044f8003e0090009e0f500002003100be00900068
:10450800010f78000000eb00100798000900370041
:104518002e00900010407800ae0090008100e80066
:10452800210798004dff07001e0090000000e800da
:10453800100798001e0090009e0f5000f4ff3900ed
:104548001e0078000080fa00000006000400fa004f
:104558000000eb00000f78008bff07002047980051
:10456800a4ff0700304798002e4090000080fb0011
:104578000000e00003003200e90f500003003200a1
:10458800040037001e20a000040037001e00a00011
:10459800020037001e10a000000000003e409000fe
:1045a8000080fb000000e00003003200e90f50002b
:1045b80003003200040037001e30a000020037005c
:1045c8001e40a000000000001e0078000080fa00d5
:1045d800000006000400fa0010079800c14280009d
:1045e8001e009000008f4000020037009e007800f7
:1045f800698f5000c09920009e007800808f50007d
:10460800faff3e001e007800104078000080fa0093
:10461800000006000000fa005bff07000080fb00b6
:104628000000e9004f00de00004078000080fa003a
:10463800000006000000fa006eff07000080fb0083
:104648000000e9004f00de00004078000080fa001a
:10465800000006000000fa00c02880000080fa0070
:10466800000006000000fa0062ff07000004e000f6
:1046780010003200e1428000d0428000808f50005c
:1046880006003600e042800080007800d0428000ba
:10469800008050000000e90007003700e042800079
:1046a80080007800d0428000008050006800400000
:1046b800010037000000eb000080fa00000006004f
:1046c8000000fa0030ff07000004e000100032008c
:1046d800c1428000b0428000808f50000600360042
:1046e800c042800080007800b04280000080500006
:1046f8000000e90007003700c04280008000780011
:10470800b04280000080500068004000010037007f
:104718000000eb000080fa00000006000000fa002c
:1047280017e5a8001945a8000080fa000000060057
:104738000000fa0017e5a9001945a9000080fa0051
:10474800000006000000fa009e60a9009e40a90033
:1047580080002000602988002e25ef0090012000ad
:10476800a02988003625ef00c09920005043880012
:10477800c099200040438800509a200030438800a8
:10478800509a2000204388006c68ef00403f2200c8
:104798000700070020412200140007009e40a800df
:1047a8002de5a8002f45a8000080fa0000000600ab
:1047b8000200fa00000f78001e0078000000e000f8
:1047c80003003a00403f220070438800020037008f
:1047d8009e007800714388000080fa0000000600ff
:1047e8000000fa000080fa00000006000200fa004b
:1047f800000f78001e0078000000e00003003a0077
:104808002041220080438800020037009e00780083
:10481800814388000080fa00000006000000fa00ca
:104828000080fa00000006000200fa000040eb00d9
:10483800004f7800000000003143800020438000d2
:10484800808f5000fcff320030438000104f78000a
:10485800304380000000e800304388003143800086
:10486800e09a2000808f500002003a00509a200001
:10487800304388001e4078000080fa0000000600df
:104888000200fa00004f7800000000001c0007003a
:104898000004a2000004e000fcff3a00404380004e
:1048a8001e487800404380000000e800404388002c
:1048b80041438000509a2000808f500002003a0047
:1048c800c0992000404388009e60a8000080fa003c
:1048d800000006000000fa003143800020438000f9
:1048e8000080680000f0a7000000ea000000ea006d
:1048f8004f00de00004078000080fa00000006004b
:104908000400fa00514380001107980041438000d9
:104918001e009000808f5000060031009e0090001d
:1049280040438000008050000000e900000f78003c
:10493800050037009e009000404380000080500032
:1049480068004000000f78001e00780000f0a70003
:104958000000ea000000ea004f00de000040780096
:104968000080fa00000006000000fa0041438000c1
:1049780050438000808f500009003a007129800060
:10498800001020000080600000f0a7000000ea008e
:104998000000ea004f00de00004078000100370008
:1049a8000040eb000080fa00000006000400fa0056
:1049b8002143800011079800304380009e0090003a
:1049c800808f5000060031009e0090003043800028
:1049d8000080500069004000000f78000400370094
:1049e8009e0090003043800000805000000f780047
:1049f800f00f20009e007800808f500002003600e3
:104a080000c0eb00020037001e007800004078006c
:104a18000080fa00000006000400fa0051438000fc
:104a280011079800414380001e009000808f5000bd
:104a3800060031009e009000404380000080500036
:104a48000000e900000f7800050037009e00900084
:104a5800404380000080500068004000000f78004c
:104a6800f00f20009e007800808f50000200360072
:104a780000c0eb00020037001e00780000407800fc
:104a88000080fa00000006000800fa0020079800dd
:104a980031079800c5ff07000080fb00000f780071
:104aa8003e0090009e0f500002003100be009000b2
:104ab800010f78000000eb0010079800090037008c
:104ac80059ff0700ae009000804878002e00900043
:104ad8000000e800200798001e0090000000e80091
:104ae800100798001e0090009e0f5000f4ff390038
:104af8001e0078000080fa00000006000800fa0096
:104b08002007980031079800c3ff07000080fb00ca
:104b1800000f78003e0090009e0f50000200310008
:104b2800be009000010f78000000eb00100798000d
:104b3800090037002e00900010407800ae00900069
:104b48008100e800210798004dff07001e00900033
:104b58000000e800100798001e0090009e0f50000b
:104b6800f4ff39001e0078000080fa0000000600fb
:104b78000400fa000000eb00000f78008bff07002c
:104b880020479800a4ff0700304798002e40900067
:104b98000080fb000000e00003003200e90f500035
:104ba80003003200040037001e20a0000400370074
:104bb8001e00a000020037001e10a0000000000028
:104bc8003e4090000080fb000000e000030032003f
:104bd800e90f500003003200040037001e30a00027
:104be800020037001e40a000000000001e007800f0
:104bf8000080fa00000006000400fa001007980080
:104c0800314380001e009000008f400002003700f2
:104c18009e007800698f5000e09a20009e0078007e
:104c2800808f5000faff3e001e0078001040780088
:104c38000080fa00000006000000fa005bff070091
:104c48000080fb000000e9004f00de000040780013
:104c58000080fa00000006000000fa006eff07005e
:104c68000080fb000000e9004f00de0000407800f3
:104c78000080fa00000006000000fa007029800099
:104c88000080fa00000006000000fa0062ff07003a
:104c98000004e000100032005143800040438000cf
:104ca800808f500006003600504380008000780056
:104cb80040438000008050000000e90007003700f2
:104cc80050438000800078004043800000805000fe
:104cd80068004000010037000000eb000080fa0087
:104ce800000006000000fa0030ff07000004e000a2
:104cf800100032003143800020438000808f500034
:104d08000600360030438000800078002043800091
:104d1800008050000000e9000700370030438000a1
:104d28008000780020438000008050006800400028
:104d3800010037000000eb000080fa0000000600c8
:104d48000000fa002de5a8002f45a8000080fa0011
:104d5800000006000000fa002de5a9002f45a90073
:104d68000080fa00000006000000fa009f20a90059
:104d78009f00a90080002000c02988003a25ef0084
:104d880090012000002a88004225ef00e09a2000c8
:104d9800c0438800e09a2000b0438800709b200040
:104da800a0438800709b2000904388007a68ef0039
:104db80060702200070007004072220014000700fc
:104dc8009f00a80039e5a8003b45a8000080fa002c
:104dd800000006000200fa00000f78001e007800ac
:104de8000000e00003003a0060702200e043880001
:104df800020037009e007800e14388000080fa0036
:104e0800000006000000fa000080fa00000006001a
:104e18000200fa00000f78001e0078000000e00091
:104e280003003a0040722200f04388000200370075
:104e38009e007800f14388000080fa000000060018
:104e48000000fa000080fa00000006000200fa00e4
:104e58000040eb00004f780000000000a1438000f4
:104e680090438000808f5000fcff3200a0438000f8
:104e7800104f7800a04380000000e800a04388009d
:104e8800a1438000009c2000808f500002003a005f
:104e9800709b2000a04388001e4078000080fa0024
:104ea800000006000200fa00004f78000000000031
:104eb8001c0007000004a2000004e000fcff3a0008
:104ec800b04380001e487800b04380000000e8002e
:104ed800b0438800b1438000709b2000808f500051
:104ee80002003a00e09a2000b04388009f20a80002
:104ef8000080fa00000006000000fa00a1438000cc
:104f0800904380000080680000f0a7000000ea00dd
:104f18000000ea004f00de00004078000080fa0040
:104f2800000006000400fa00c14380001107980041
:104f3800b14380001e009000808f500006003100b1
:104f48009e009000b0438000008050000000e900ff
:104f5800000f7800050037009e009000b0438000e5
:104f68000080500068004000000f78001e007800a4
:104f780000f0a7000000ea000000ea004f00de0091
:104f8800004078000080fa00000006000000fa00e7
:104f9800b1438000c0438000808f500009003a0070
:104fa800d1298000001020000080600000f0a700d8
:104fb8000000ea000000ea004f00de000040780030
:104fc800010037000040eb000080fa0000000600f6
:104fd8000400fa009143800011079800a043800064
:104fe8009e009000808f5000060031009e009000c7
:104ff800a04380000080500069004000000f780046
:10500800040037009e009000a043800000805000fc
:10501800000f7800f00f20009e007800808f50006d
:105028000200360000c0eb00020037001e007800c6
:10503800004078000080fa00000006000400fa0032
:10504800c143800011079800b14380001e00900002
:10505800808f5000060031009e009000b043800011
:10506800008050000000e900000f780005003700bc
:105078009e009000b043800000805000680040000f
:10508800000f7800f00f20009e007800808f5000fd
:105098000200360000c0eb00020037001e00780056
:1050a800004078000080fa00000006000800fa00be
:1050b8002007980031079800c5ff07000080fb0013
:1050c800000f78003e0090009e0f50000200310053
:1050d800be009000010f78000000eb001007980058
:1050e8000900370059ff0700ae009000804878009b
:1050f8002e0090000000e800200798001e00900095
:105108000000e800100798001e0090009e0f500055
:10511800f4ff39001e0078000080fa000000060045
:105128000800fa002007980031079800c3ff07001d
:105138000080fb00000f78003e0090009e0f50009a
:1051480002003100be009000010f78000000eb0063
:1051580010079800090037002e00900010407800d2
:10516800ae0090008100e800210798004dff07007d
:105178001e0090000000e800100798001e00900034
:105188009e0f5000f4ff39001e0078000080fa00de
:10519800000006000400fa000000eb00000f780091
:1051a8008bff070020479800a4ff070030479800ae
:1051b8002e4090000080fb000000e0000300320059
:1051c800e90f500003003200040037001e20a00041
